:020000040800F2
:10000000005000200D210008E91F0008EF1F000824
:10001000F51F0008FB1F0008012000080000000079
:1000200000000000000000000000000007200008A1
:1000300013200008000000001F2000082B200008EB
:1000400055210008552100085521000855210008B8
:1000500055210008552100085521000855210008A8
:100060005521000855210008552100085521000898
:100070005521000855210008552100085521000888
:100080005521000855210008552100085521000878
:100090005521000855210008552100085521000868
:1000A0005521000855210008552100085521000858
:1000B000392000084D20000855210008552100086E
:1000C0005521000855210008552100085521000838
:1000D000552100085521000861200008552100081D
:1000E0005521000855210008552100080000000096
:1000F0000000000000000000000000000000000000
:0C01000000000000000000005FF808F1A3
:10010C0010B5054C237833B9044B13B10448AFF345
:10011C0000800123237010BD9C0000200000000013
:10012C002853000808B5034B1BB103490348AFF330
:10013C00008008BD00000000A0000020285300082B
:10014C0080B500AF01224FF48071024802F0B9FB78
:10015C0000BF80BD0010014080B500AF00224FF4FD
:10016C008071024802F0ADFB00BF80BD0010014061
:10017C0080B500AF01224FF40071024802F0A1FBE0
:10018C0000BF80BD0010014080B500AF00224FF4CD
:10019C000071024802F095FB00BF80BD00100140C9
:1001AC0080B586B000AF7860396000237B6132E0A7
:1001BC007968304B83FB01239A10CB17D21A134664
:1001CC009B0013445B00CA1A2B4B995C07F10C0281
:1001DC007B6913440A461A707B69022B10D13B6869
:1001EC00002B0DD007F10C027B6913441B7863F0D4
:1001FC007F03D9B207F10C027B6913440A461A70CB
:10020C007B681C4A82FB03129210DB17D31A7B60AB
:10021C007B6901337B617B69032BC9DD00F043F8FB
:10022C00402000F072F800F060F800F049F800F09F
:10023C003AF8C02000F069F800F057F800233B6151
:10024C000EE03B69C3F1030318333B4413F80C3C39
:10025C00184600F05AF800F048F83B6901333B614E
:10026C003B69032BEDDD00F02BF800BF1837BD46C2
:10027C0080BD00BF676666666053000880B582B0BB
:10028C0000AF0346FB7100F00EF8FB79793BDBB253
:10029C00184600F03AF800F028F800F011F800BF0A
:1002AC000837BD4680BD80B500AFFFF749FFFFF7AB
:1002BC005FFF022000F053F8FFF766FF00BF80BD20
:1002CC0080B500AFFFF748FF022000F048F8FFF7B9
:1002DC005BFF022000F043F8FFF732FF022000F032
:1002EC003EF8FFF745FF00BF80BD80B500AFFFF7BC
:1002FC0033FF052000F033F8FFF722FF022000F057
:10030C002EF8FFF729FF00BF80BD80B584B000AF89
:10031C000346FB710023FB6019E0FFF71DFFFB791F
:10032C0003F00103002B02D0FFF722FF01E0FFF7DF
:10033C002BFF032000F013F8FB795B08FB71FFF730
:10034C00FFFE032000F00BF8FB680133FB60FB6839
:10035C00072BE2DD00BF00BF1037BD4680BD80B467
:10036C0085B000AF78600DE00023FB6003E000BFB8
:10037C00FB680133FB60FB68B3F5FA7FF7DB7B6846
:10038C00013B7B607B68002BEED100BF00BF1437B4
:10039C00BD4680BC7047000080B500AF564B1B6853
:1003AC000E2B00F29A8001A252F823F0F5030008FC
:1003BC00E7040008E7040008E7040008E704000865
:1003CC00E7040008E7040008E70400081B04000821
:1003DC004904000877040008E7040008A504000895
:1003EC00BB040008D104000800F0C2FD434B1B689D
:1003FC00434A1360404B08221A60404B1B68184656
:10040C0000F07AFB0346184601F0C4FB72E000F0E2
:10041C00F7FD3C4B1B68012B61D1374B09221A604D
:10042C00394B1B68364A1360374B1B68184600F073
:10043C0063FB0346184601F0ADFB50E000F0F2FD03
:10044C00304B1B68012B4CD12B4B0A221A602F4BC3
:10045C001B682B4A13602D4B1B68184600F04CFB95
:10046C000346184601F096FB3BE000F0EDFD254BF2
:10047C001B68012B37D1204B08221A601F4B1B68BD
:10048C001F4A13601D4B1B68184600F035FB0346D2
:10049C00184601F07FFB26E01A4B1B68012B24D178
:1004AC0000F0DEFC4FF4FA7001F074FB1DE0154B0C
:1004BC001B68012B1BD100F0E5FC4FF4FA7001F026
:1004CC0069FB14E00F4B1B68012B12D100F0ECFC04
:1004DC004FF4FA7001F05EFB0BE000BF0AE000BFC6
:1004EC0008E000BF06E000BF04E000BF02E000BF70
:1004FC0000E000BF00BF80BDBC0000200C0000204D
:10050C00180000203C0500201000002014000020E2
:10051C0080B500AF564B1B680E2B00F29A8001A2DF
:10052C0052F823F06D0500085F0600085F0600080E
:10053C005F0600085F0600085F0600085F060008FB
:10054C005F06000893050008C1050008EF050008C8
:10055C005F0600081D06000833060008490600085F
:10056C0000F084FD434B1B68434A1360404B092247
:10057C001A60404B1B68184600F0BEFA034618463A
:10058C0001F022FB72E000F083FD3C4B1B68012B59
:10059C0061D1374B09221A60364B1B68364A1360FF
:1005AC00344B1B68184600F0A7FA0346184601F0B6
:1005BC000BFB50E000F07EFD304B1B68012B4CD147
:1005CC002B4B0A221A602E4B1B682B4A13602C4BA8
:1005DC001B68184600F090FA0346184601F0F4FA2E
:1005EC003BE000F079FD254B1B68012B37D1204BEC
:1005FC0008221A60234B1B681F4A1360214B1B688F
:10060C00184600F079FA0346184601F0DDFA26E0A8
:10061C001A4B1B68012B24D100F056FC4FF4FA70D6
:10062C0001F0D2FA1DE0154B1B68012B1BD100F019
:10063C005DFC4FF4FA7001F0C7FA14E00F4B1B6825
:10064C00012B12D100F064FC4FF4FA7001F0BCFAEB
:10065C000BE000BF0AE000BF08E000BF06E000BFEF
:10066C0004E000BF02E000BF00E000BF00BF80BD9F
:10067C00C0000020100000201C00002040050020BD
:10068C00140000200C00002080B500AF894B1B68C3
:10069C00042B00F2038101A252F823F0BD060008DE
:1006AC00E306000835070008BD07000845080008E8
:1006BC00804B01221A60804B00221A607F4B002273
:1006CC001A607F4B28221A607E4B00221A607E4BE8
:1006DC0000221A60EBE07D4B1B68184600F01AFAFA
:1006EC000346012B40F0DC8001F014FA01F022FAF1
:1006FC0001F030FA6F4B02221A6000F019FC6E4BBD
:10070C000C221A606D4B0C221A60714B02221A607B
:10071C00704B1B68704A13606A4B1E221A604FF4B0
:10072C007A7001F06BFABBE0684B1B68184600F05E
:10073C00F1F90346012B1AD101F0ECF901F0FAF9A9
:10074C0001F008FA5B4B03221A6000F0F1FB5A4BE4
:10075C000E221A60594B0E221A605D4B03221A604E
:10076C005E4B1B685C4A1360564B1E221A605C4B36
:10077C001B68184600F0CEF90346012B0BD1564BE3
:10078C001B680133544A1360534B1B68632B02DD07
:10079C00514B00221A60534B1B68184600F0BAF9F3
:1007AC000346012B7ED14C4B1B684A4A136079E0FF
:1007BC00464B1B68184600F0ADF90346012B1AD1C5
:1007CC0001F0A8F901F0B6F901F0C4F9394B042293
:1007DC001A60394B0D221A60384B0D221A6000F04A
:1007EC00A7FB3B4B04221A603F4B1B683A4A136031
:1007FC00344B1E221A603A4B1B68184600F08AF9DB
:10080C000346012B0BD1344B1B680133324A136066
:10081C00314B1B68632B02DD2F4B00221A60314BCE
:10082C001B68184600F076F90346012B3CD12A4B85
:10083C001B682A4A136037E0244B1B68184600F0EB
:10084C0069F90346012B08D101F064F901F072F942
:10085C0001F080F9174B00221A60214B1B681846D7
:10086C0000F058F90346012B0BD11B4B1B680133CD
:10087C00194A1360184B1B68632B02DD164B0022C0
:10088C001A60184B1B68184600F044F90346012BFC
:10089C000CD1114B1B68144A136007E000BF06E033
:1008AC0000BF04E000BF02E000BF00E000BF00BFDB
:1008BC0080BD00BFB8000020BC000020C00000209C
:1008CC00C8000020C4000020CC000020D000002074
:1008DC00180000200C0000201C0000201400002038
:1008EC0000000020040000201000002080B500AFA4
:1008FC007C4B1B68212B00F2E28001A252F823F002
:10090C0095090008CB0A0008CB0A0008CB0A00089E
:10091C00CB0A0008CB0A0008CB0A0008CB0A000857
:10092C00CB0A0008CB0A0008CB0A0008CB0A000847
:10093C00CB0A0008CB0A0008CB0A0008CB0A000837
:10094C00CB0A0008CB0A0008CB0A0008CB0A000827
:10095C00AD090008CF090008EF0900082F0A0008AC
:10096C00CB0A0008CB0A0008CB0A0008CB0A000807
:10097C00CB0A0008CB0A00084F0A00086F0A0008CF
:10098C008F0A0008AB0A0008564B14221A60564B0B
:10099C001B680133544A1360FA2001F02FF99FE0D1
:1009AC00524B1B68012B40F08C804E4B15221A6069
:1009BC004D4B1B6801334C4A1360FA2001F01EF9B1
:1009CC007FE04A4B1B68012B7DD1464B16221A60E7
:1009DC00454B1B680133444A1360FF2001F00EF9AC
:1009EC0071E0424B1B68012B6FD13E4B17221A60F2
:1009FC003D4B00221A603E4B1B68012B04D03C4B34
:100A0C001B68013B3A4A13603A4B1B68012B04D01C
:100A1C00384B1B68013B374A1360FA2001F0EEF8A3
:100A2C0053E0324B1B68012B51D12E4B14221A6010
:100A3C002D4B1B6801332C4A1360FA2001F0DEF8B1
:100A4C0045E02A4B1B68012B43D1264B1F221A6011
:100A5C00254B1B680133244A1360FA2001F0CEF8B1
:100A6C0037E0224B1B68012B35D11E4B20221A601C
:100A7C001D4B1B6801331C4A1360FA2001F0BEF8B1
:100A8C0029E01A4B1B68012B27D1164B21221A6027
:100A9C00154B00221A60FA2001F0B0F81DE0134B40
:100AAC001B68012B1BD10F4B1E221A600E4B1B68AF
:100ABC0001330D4A1360FA2001F0A0F80FE000BFDB
:100ACC000EE000BF0CE000BF0AE000BF08E000BF72
:100ADC0006E000BF04E000BF02E000BF00E000BF82
:100AEC0000BF80BDC4000020CC00002044050020C5
:100AFC00180000201C00002080B483B000AF786088
:100B0C007B684FF47A7202FB03F318460C37BD4630
:100B1C0080BC704780B483B000AF7860094A7B68B2
:100B2C0013441B78012B06D1064A7B681344002220
:100B3C001A70012300E0002318460C37BD4680BC18
:100B4C00704700BFE800002080B483B000AF0346BC
:100B5C00FB71FB79032B01D9002307E0FB79064AD3
:100B6C00D35C002B0CBF01230023DBB218460C37DF
:100B7C00BD4680BC704700BFD400002080B483B059
:100B8C0000AF0346FB71FB79032B01D9FF2307E070
:100B9C00FB79064AD35C012B0CBF01230023DBB28B
:100BAC0018460C37BD4680BC704700BFE4000020DF
:100BBC0080B582B000AF0346FB71FB79634AD35C0E
:100BCC00022B00F08980022B00F3BB80002B02D09B
:100BDC00012B37D0B5E0FB791846FFF7B5FF03467C
:100BEC00002B11D0FB79594A0121D154FB79584A79
:100BFC00002122F81310FB79564A0021D154FB79BD
:100C0C00554A0121D15499E0544B1B68012B40F0FB
:100C1C009580534B1B68012B00F09080514B1B6847
:100C2C000133504A13604F4B1B68092B05DD4D4BAC
:100C3C0000221A604A4B00221A604FF47A7000F0BE
:100C4C00F7FF7BE0474B00221A60FB791846FFF751
:100C5C007BFF0346002B0DD1FB793C4A0021D1547C
:100C6C00FB793D4A0021D154FB79394A002122F805
:100C7C00131065E0FB79364A32F81330632B09D830
:100C8C00FB79334A32F81320013291B2304A22F800
:100C9C00131011E0FB792F4A0121D154FB792E4A14
:100CAC000121D154FB79304A002122F81310FB7931
:100CBC00274A002122F81310FB791846FFF75EFF34
:100CCC000346002B3CD0FB79204A0221D154FB79FE
:100CDC00204A0021D15433E0224B00221A60FB79C8
:100CEC001846FFF731FF0346002B0DD1FB79174A4D
:100CFC000021D154FB79184A0021D154FB791A4AAE
:100D0C00002122F813101CE0FB79174A32F813303B
:100D1C00132B09D8FB79144A32F81320013291B203
:100D2C00114A22F813100CE0FB790B4A0121D15423
:100D3C00FB790D4A002122F8131002E000BF00E0FD
:100D4C0000BF00BF0837BD4680BD00BFFC000020BF
:100D5C00EC000020E4000020E80000204805002002
:100D6C00B800002000010020F400002090B583B0F2
:100D7C0000AF0023FB715FE0FA79FB793249895CA3
:100D8C00324AD154FA79FB793149895C2E4AD154D3
:100D9C00FB79032B32D801A252F823F0B90D0008CD
:100DAC00CD0D0008E10D0008F50D0008FC790221BD
:100DBC00284801F06FFD03461A46254B1A551EE0D4
:100DCC00FC794021244801F065FD03461A46204B6E
:100DDC001A5514E0FC7980211F4801F05BFD034695
:100DEC001A461B4B1A550AE0FC790121194801F0EF
:100DFC0051FD03461A46164B1A5500E000BFFB790D
:100E0C00134AD25CFB791049CB5C9A4211D1FB7925
:100E1C000D4AD25CFB790D49CB5C9A4209D1FA7927
:100E2C00FB790A49895C0D4AD154FB791846FFF7C6
:100E3C00BFFEFB790133FB71FB79032B9CD900BFFF
:100E4C0000BF0C37BD4690BDDC000020E000002048
:100E5C00D80000200008014000100140D400002000
:100E6C0080B500AF00224FF40061054801F029FD68
:100E7C004FF48061024801F03CFD00BF80BD00BF13
:100E8C000010014080B500AF4FF40061054801F03F
:100E9C0030FD00224FF48061024801F012FD00BFCA
:100EAC0080BD00BF0010014080B500AF4FF4006161
:100EBC00044801F01EFD4FF48061024801F019FD59
:100ECC0000BF80BD0010014080B500AF0022102192
:100EDC00044801F0F6FC0121034801F00AFD00BFB3
:100EEC0080BD00BF00080140000C014080B500AF80
:100EFC001021054801F0FDFC00220121034801F0FE
:100F0C00E0FC00BF80BD00BF00080140000C0140A8
:100F1C0080B500AF1021044801F0EBFC012103481F
:100F2C0001F0E7FC00BF80BD00080140000C01404F
:100F3C0080B500AF00224FF400610A4801F0C1FCFB
:100F4C0000224FF48061074801F0BBFC0022102105
:100F5C00054801F0B6FC00220121044801F0B1FC67
:100F6C0000BF80BD0010014000080140000C014092
:100F7C0080B500AF00224FF40061054801F0A1FCE0
:100F8C0000224FF48061024801F09BFC00BF80BD41
:100F9C000010014080B500AF00224FF4807105486D
:100FAC0001F08FFC01224FF40071024801F089FC22
:100FBC0000BF80BD000C014080B500AF01224FF492
:100FCC008071054801F07DFC00224FF4007102484D
:100FDC0001F077FC00BF80BD000C014080B500AF74
:100FEC0000224FF48071054801F06BFC00224FF495
:100FFC000071024801F065FC00BF80BD000C01408F
:10100C0080B500AF00224FF40061054801F059FC97
:10101C0001224FF48061024801F053FC00BF80BDF7
:10102C000010014080B500AF01224FF4006105486B
:10103C0001F047FC00224FF48061024801F041FCB2
:10104C0000BF80BD0010014080B500AF01224FF4FD
:10105C000061054801F035FC01224FF48061024823
:10106C0001F02FFC00BF80BD0010014080B500AF27
:10107C0000221021044801F024FC00220121034825
:10108C0001F01FFC00BF80BD00080140000C0140B6
:10109C0080B500AF00221021044801F012FC01229F
:1010AC000121034801F00DFC00BF80BD0008014088
:1010BC00000C014080B500AF01221021044801F062
:1010CC0000FC00220121034801F0FBFB00BF80BDA6
:1010DC0000080140000C014080B500AF0122102136
:1010EC00044801F0EEFB01220121034801F0E9FB69
:1010FC0000BF80BD00080140000C014080B500AF6E
:10110C001A4B1B68012B2ED1194B1A6813469B00E6
:10111C0013444FF47A7292FBF3F2164B1B68134490
:10112C00144A1360134B1B68B3F57A7F03DD114B24
:10113C004FF47A721A600F4B1A680F4B1B685A6384
:10114C000E4B1B68184600F0A7FD0C4B1A680C4B95
:10115C001B68D31A094A1360084B1B68002B02DC6E
:10116C00064B0A221A6000BF80BD00BF500500204C
:10117C000C0000200C0200204C0100202400002058
:10118C002000002080B400AF054B00221A60044BF5
:10119C001A68044B1B685A6300BFBD4680BC70477D
:1011AC000C0200204C01002080B500AF084B1B68DE
:1011BC00084A0949094803F037FC03469AB24FF430
:1011CC007A730649064802F072FF00BF80BD00BF6B
:1011DC00180000204053000848530008D801002094
:1011EC009401002080B500AF00F0B0FF00F08AF849
:1011FC0000F0B6F900F0C8F800F012F900F086F92A
:10120C00324801F0F9FF0021314802F09FF8314BD0
:10121C0000221A604FF47A7000F0BCFC4FF47A7024
:10122C0000F0D2FC4FF47A7000F0E8FC4FF47A70C6
:10123C0000F0FEFC4FF47A7000F014FD4FF47A705D
:10124C0000F02AFD00F0D8FA0A220021224800F012
:10125C00DFFA0A220021214800F0DAFA0A220021E2
:10126C001F4800F0D5FA0A2200211E4800F0D0FADF
:10127C000A2200211C4800F0CBFA0A2200211B484C
:10128C0000F0C6FA0A220021194800F0C1FA0A221D
:10129C000021184800F0BCFA0720FEF7EFFF00F021
:1012AC0077FB154B1B68012BF9D1144B1B6864227F
:1012BC0003FB02F2124B1B68134401211846FEF784
:1012CC006FFF0A2000F0CEFCE9E700BF040100200C
:1012DC004C010020B8000020D91C0008790D000832
:1012EC0095060008A50300081D050008F90800086C
:1012FC00D1160008B51100084C050020180000207C
:10130C001C00002080B590B000AF07F11803282214
:10131C000021184603F080FB3B1D00221A605A6026
:10132C009A60DA601A610223BB610123BB6210234D
:10133C00FB6202237B630023BB634FF46013FB63EC
:10134C0007F11803184601F0EDFA0346002B01D003
:10135C0000F0B2F90F237B600223BB600023FB601B
:10136C004FF480633B6100237B613B1D02211846D7
:10137C0001F05AFD0346002B01D000F09DF900BF8F
:10138C004037BD4680BD000080B586B000AF07F188
:10139C00080300221A605A609A60DA603B46002209
:1013AC001A605A601D4B4FF080421A601B4B4FF66F
:1013BC00FF125A60194B00229A60184B0922DA600E
:1013CC00164B00221A61154B00229A61134801F04A
:1013DC00C3FE0346002B01D000F06EF94FF480538E
:1013EC00BB6007F1080319460C4802F017FA0346D4
:1013FC00002B01D000F060F900233B6000237B60E0
:10140C003B461946054802F095FD0346002B01D0DA
:10141C0000F052F900BF1837BD4680BD0401002012
:10142C0080B58EB000AF07F1280300221A605A6015
:10143C009A60DA6007F1200300221A605A603B1DA3
:10144C0000221A605A609A60DA601A615A619A61D5
:10145C002C4B2D4A1A602B4B3F225A60294B0022F1
:10146C009A60284B40F2E732DA60264B00221A6170
:10147C00244B00229A61234801F06EFE0346002B98
:10148C0001D000F019F94FF48053BB6207F1280327
:10149C0019461C4802F0C2F90346002B01D000F09B
:1014AC000BF9184801F0FAFE0346002B01D000F0AE
:1014BC0003F900233B6200237B6207F120031946EA
:1014CC00104802F037FD0346002B01D000F0F4F871
:1014DC0060237B600023BB600023FB6000237B61E7
:1014EC003B1D00221946074802F0DAF80346002B90
:1014FC0001D000F0E1F8034800F0ECFC00BF3837F5
:10150C00BD4680BD4C0100200004004080B500AFFA
:10151C00114B124A1A60104B4FF416525A600E4B74
:10152C0000229A600C4B0022DA600B4B00221A61ED
:10153C00094B0C225A61084B00229A61064B00227F
:10154C00DA61054802F066FD0346002B01D000F07D
:10155C00B3F800BF80BD00BF9401002000440040E0
:10156C0080B588B000AF07F1100300221A605A60F2
:10157C009A60DA604C4B9B694B4A43F004039361CD
:10158C00494B9B6903F00403FB60FB68464B9B696A
:10159C00454A43F008039361434B9B6903F00803EE
:1015AC00BB60BB68404B9B693F4A43F0100393619F
:1015BC003D4B9B6903F010037B607B68002210217C
:1015CC003A4801F07EF9002240F20131384801F02E
:1015DC0078F900224FF47061364801F072F9032358
:1015EC003B6100237B610123BB6107F110031946AA
:1015FC002E4800F0CBFF10233B6101237B610023BD
:10160C00BB610223FB6107F110031946274800F068
:10161C00BDFF40F201333B6101237B610023BB61C1
:10162C000223FB6107F110031946214800F0AEFFBD
:10163C004FF480633B6112237B610323FB6107F151
:10164C00100319461A4800F0A1FFC0233B61002388
:10165C007B610123BB6107F110031946154800F0AB
:10166C0095FF4FF440733B6101237B610023BB6109
:10167C000323FB6107F1100319460E4800F086FFA7
:10168C004FF440633B6101237B610023BB61022368
:10169C00FB6107F110031946064800F077FF00BF05
:1016AC002037BD4680BD00BF00100240000801403D
:1016BC00000C01400010014080B400AF72B600BFB6
:1016CC00FEE7000080B500AF454B1B68292B37D0D7
:1016DC00292B7CDC202B54D0282B78D1FFF77EFCD7
:1016EC00FFF750FD3F4B1B681846FFF713FA0346F4
:1016FC00012B6ED13C4B00221A603C4B1B68082B13
:10170C0013D1374B29221A60394B00221A60394BFE
:10171C004FF4BE721A6000F02DFAFFF7EFFC324B5B
:10172C001B680133304A136053E02D4B20221A60A2
:10173C00FFF728FD2C4B1B6801332B4A136048E044
:10174C00FFF73AFCFFF7DAFC284B1B68092B03D098
:10175C00264B1B680A2B3ED1234B1B68032B05DD44
:10176C001F4B28221A60FFF70DFD34E01C4B202282
:10177C001A60FFF707FD1C4B1B6801331A4A1360F4
:10178C0029E0FFF707FCFFF7FDFC184B1B68082B43
:10179C0023D1154B1B68032B05DD114B28221A6036
:1017AC00FFF7F0FC19E00E4B29221A60104B0022B7
:1017BC001A60104B4FF4BE721A6000F0DBF9FFF7A1
:1017CC009DFC094B1B680133074A136005E000BF01
:1017DC0004E000BF02E000BF00E000BF00BF80BD1E
:1017EC00C80000200800002010020020BC000020CF
:1017FC000C0200202400002080B400AF034B002218
:10180C001A7000BFBD4680BC704700BF3405002075
:10181C0080B485B000AFF860B9607A60294B1B7852
:10182C00272B4AD8274B1B781946274A0B469B0077
:10183C000B449B001344FA681A60224B1B78184621
:10184C00BB68224AA2FB0323DA081F4903469B000C
:10185C0003449B000B4404331A601A4B1B78184644
:10186C007B681A4AA2FB0323DA08174903469B003C
:10187C0003449B000B4408331A60124B1B78194627
:10188C00114A0B469B000B449B0013440C33002263
:10189C001A700C4B1A780B4B1B78194610460A4AD7
:1018AC000B469B000B449B00134410331860054BF4
:1018BC001B780133DAB2034B1A7000BF1437BD46E4
:1018CC0080BC70473405002014020020CDCCCCCC59
:1018DC0080B483B000AF00237B6048E02A497A686B
:1018EC0013469B0013449B000B4404331B68002BD2
:1018FC0013D025497A6813469B0013449B000B4474
:10190C0004331B68591E20487A6813469B00134405
:10191C009B0003440433196026E01B497A68134684
:10192C009B0013449B000B440833196816487A68D3
:10193C0013469B0013449B00034404331960124963
:10194C007A6813469B0013449B000B440C331B78A2
:10195C000133D8B20C497A6813469B0013449B00A0
:10196C000B440C3302461A707B6801337B60074BC7
:10197C001B781A467B689342B0DB00BF00BF0C3764
:10198C00BD4680BC704700BF140200203405002007
:10199C0080B582B000AF00237B6039E022497A68C1
:1019AC0013469B0013449B000B440C331B78002BF9
:1019BC002BD01D497A6813469B0013449B000B44A3
:1019CC000C331B78013BD8B217497A6813469B003D
:1019DC0013449B000B440C3302461A7012497A686C
:1019EC0013469B0013449B000B441B6898470E49FD
:1019FC007A6813469B0013449B000B4408331B6806
:101A0C00002B02D1786800F013F87B6801337B60FF
:101A1C00064B1B781A467B689342BFDB00BF00BFA6
:101A2C000837BD4680BD00BF1402002034050020DD
:101A3C0080B485B000AF7860344B1B781A467B6855
:101A4C0093425DDA7B68FB604DE0FB685A1C3049C1
:101A5C0013469B0013449B000B4419682C48FA68EE
:101A6C0013469B0013449B0003441960FB685A1CEB
:101A7C00274913469B0013449B000B4408331968F9
:101A8C002348FA6813469B0013449B000344083315
:101A9C001960FB685A1C1E4913469B0013449B009B
:101AAC000B440C3318781A49FA6813469B001344FC
:101ABC009B000B440C3302461A70FB685A1C1449E9
:101ACC0013469B0013449B000B44043319681048C5
:101ADC00FA6813469B0013449B00034404331960BB
:101AEC00FB680133FB60094B1B78013BFA689A4297
:101AFC00ABDB064B1B78013BDAB2044B1A7000E0EF
:101B0C0000BF1437BD4680BC704700BF34050020B1
:101B1C001402002080B400AF044B00221A60044B66
:101B2C0001221A6000BFBD4680BC704758050020DA
:101B3C003C05002080B400AF044B00221A60044B1B
:101B4C0001221A6000BFBD4680BC70475C050020B6
:101B5C004005002080B400AF044B00221A60044BF7
:101B6C0001221A6000BFBD4680BC70476005002092
:101B7C004405002080B400AF044B00221A60044BD3
:101B8C0001221A6000BFBD4680BC70476C05002066
:101B9C005005002080B483B000AF7860074B1B6801
:101BAC007A6892FBF3F3064A1360064B00221A6024
:101BBC0000BF0C37BD4680BC704700BF280000201A
:101BCC00580500203C05002080B483B000AF78603D
:101BDC00074B1B687A6892FBF3F3064A1360064BBB
:101BEC0000221A6000BF0C37BD4680BC704700BF96
:101BFC00280000205C0500204005002080B483B044
:101C0C0000AF7860074B1B687A6892FBF3F3064AC7
:101C1C001360064B00221A6000BF0C37BD4680BC17
:101C2C00704700BF280000206005002044050020FC
:101C3C0080B483B000AF7860074B1B687A6892FB66
:101C4C00F3F3064A1360064B00221A6000BF0C37F0
:101C5C00BD4680BC704700BF2800002064050020F2
:101C6C004805002080B483B000AF7860074B1B6838
:101C7C007A6892FBF3F3064A1360064B00221A6053
:101C8C0000BF0C37BD4680BC704700BF2800002049
:101C9C00680500204C05002080B483B000AF78604C
:101CAC00074B1B687A6892FBF3F3064A1360064BEA
:101CBC0000221A6000BF0C37BD4680BC704700BFC5
:101CCC00280000206C0500205005002080B400AFD7
:101CDC00394B1B68002B0BDD374B1B68013B364A1D
:101CEC001360354B1B68002B02DC344B01221A604D
:101CFC00334B1B68002B0BDD314B1B68013B304A0F
:101D0C0013602F4B1B68002B02DC2E4B01221A6038
:101D1C002D4B1B68002B0BDD2B4B1B68013B2A4A00
:101D2C001360294B1B68002B02DC284B01221A6024
:101D3C00274B1B68002B0BDD254B1B68013B244AF2
:101D4C001360234B1B68002B02DC224B01221A6010
:101D5C00214B1B68002B0BDD1F4B1B68013B1E4AE4
:101D6C0013601D4B1B68002B02DC1C4B01221A60FC
:101D7C001B4B1B68002B0BDD194B1B68013B184AD6
:101D8C001360174B1B68002B02DC164B01221A60E8
:101D9C00154B1B68002B0BDD134B1B68013B124AC8
:101DAC001360114B1B68002B02DC104B01221A60D4
:101DBC0000BFBD4680BC704754050020380500208C
:101DCC00580500203C0500205C0500204005002043
:101DDC006005002044050020640500204805002013
:101DEC00680500204C0500206C05002050050020E3
:101DFC0080B485B000AF154B9B69144A43F00103C6
:101E0C009361124B9B6903F00103BB60BB680F4BE2
:101E1C00DB690E4A43F08053D3610C4BDB6903F052
:101E2C0080537B607B680A4B5B68FB60FB6823F02C
:101E3C00E063FB60FB6843F00073FB60044AFB68E3
:101E4C00536000BF1437BD4680BC70470010024081
:101E5C000000014080B584B000AF78607B681B68DF
:101E6C00B3F1804F14D1194BDB69184A43F00103CD
:101E7C00D361164BDB6903F00103FB60FB680022A6
:101E8C0000211C2000F09BFA1C2000F0B4FA18E092
:101E9C007B681B680E4A934213D10C4BDB690B4ACF
:101EAC0043F00203D361094BDB6903F00203BB600F
:101EBC00BB68002200211D2000F081FA1D2000F0DB
:101ECC009AFA00BF1037BD4680BD00BF001002401B
:101EDC000004004080B588B000AF786007F11003B3
:101EEC0000221A605A609A60DA607B681B680F4A9D
:101EFC00934217D10E4B9B690D4A43F00403936137
:101F0C000B4B9B6903F00403FB60FB6840233B61B4
:101F1C0002237B610223FB6107F11003194605487C
:101F2C0000F034FB00BF2037BD4680BD00040040EC
:101F3C00001002400008014080B588B000AF786006
:101F4C0007F1100300221A605A609A60DA607B680D
:101F5C001B681F4A934237D11E4BDB691D4A43F461
:101F6C000033D3611B4BDB6903F40033FB60FB686C
:101F7C00184B9B69174A43F004039361154B9B69FB
:101F8C0003F00403BB60BB6804233B6102237B6149
:101F9C000323FB6107F1100319460F4800F0F6FA12
:101FAC0008233B6100237B610023BB6107F1100315
:101FBC001946094800F0EAFA00220021262000F018
:101FCC00FEF9262000F017FA00BF2037BD4680BD71
:101FDC0000440040001002400008014080B400AFF3
:101FEC00FEE780B400AFFEE780B400AFFEE780B43C
:101FFC0000AFFEE780B400AFFEE780B400AF00BFD7
:10200C00BD4680BC704780B400AF00BFBD4680BCED
:10201C00704780B400AF00BFBD4680BC704780B530
:10202C0000AF00F0D9F800BF80BD000080B500AF54
:10203C00024801F02DFA00BF80BD00BF0401002052
:10204C0080B500AF024801F023FA00BF80BD00BF8D
:10205C004C01002080B500AF024802F0BBF800BF75
:10206C0080BD00BF9401002080B586B000AF7860C1
:10207C00144A154BD31A7B617B693B61134B1B686C
:10208C00002B02D1114B124A1A60104B1A687B6854
:10209C0013443A699A4207D202F094FC03460C228C
:1020AC001A604FF0FF3309E0084B1B68FB60074BCD
:1020BC001A687B681344054A1360FB681846183786
:1020CC00BD4680BD005000200004000070050020BB
:1020DC008805002080B400AF00BFBD4680BC7047AF
:1020EC0080B582B000AF78607B681B68B3F1804F1D
:1020FC0001D1FFF7EDFB00BF0837BD4680BD0000E6
:10210C000C480D490D4A002302E0D458C450043346
:10211C00C4188C42F9D30A4A0A4C002301E013601C
:10212C000432A242FBD3FFF7D5FF02F051FCFFF7BC
:10213C0059F87047000000209C000020C85300088C
:10214C009C00002088050020FEE7000080B500AF51
:10215C00084B1B68074A43F010031360032000F080
:10216C0023F90F2000F008F8FFF742FE0023184671
:10217C0080BD00BF0020024080B582B000AF786007
:10218C00124B1A68124B1B7819464FF47A73B3FB37
:10219C00F1F3B2FBF3F3184600F03BF90346002BC6
:1021AC0001D001230EE07B680F2B0AD8002279683E
:1021BC004FF0FF3000F003F9064A7B6813600023F0
:1021CC0000E0012318460837BD4680BD2C000020D6
:1021DC00340000203000002080B400AF054B1B7889
:1021EC001A46054B1B681344034A136000BFBD46D7
:1021FC0080BC7047340000207405002080B400AF10
:10220C00024B1B681846BD4680BC70477405002005
:10221C0080B485B000AF78607B6803F00703FB6087
:10222C000C4BDB68BB60BA684FF6FF031340BB6016
:10223C00FB681A02BB68134343F0BF6343F40033DB
:10224C00BB60044ABB68D36000BF1437BD4680BC7A
:10225C00704700BF00ED00E080B400AF044BDB68BA
:10226C001B0A03F007031846BD4680BC704700BF2D
:10227C0000ED00E080B483B000AF0346FB7197F92A
:10228C000730002B0BDBFB7903F01F02064997F993
:10229C0007305B09012000FA02F241F8232000BF4D
:1022AC000C37BD4680BC704700E100E080B483B0C1
:1022BC0000AF03463960FB7197F90730002B0ADB3E
:1022CC003B68DAB20C4997F907301201D2B20B44D1
:1022DC0083F800230AE03B68DAB20849FB7903F083
:1022EC000F03043B1201D2B20B441A7600BF0C3719
:1022FC00BD4680BC704700BF00E100E000ED00E08F
:10230C0080B489B000AFF860B9607A60FB6803F004
:10231C000703FB61FB69C3F10703042B28BF0423EC
:10232C00BB61FB690433062B02D9FB69033B00E05C
:10233C0000237B614FF0FF32BB6902FA03F3DA43EF
:10234C00BB681A407B699A404FF0FF317B6901FAF8
:10235C0003F3D9437B680B40134318462437BD461F
:10236C0080BC704780B582B000AF78607B68013B61
:10237C00B3F1807F01D301230FE00A4A7B68013B54
:10238C0053600F214FF0FF30FFF790FF054B0022F9
:10239C009A60044B07221A60002318460837BD4682
:1023AC0080BD00BF10E000E080B582B000AF786067
:1023BC007868FFF72DFF00BF0837BD4680BD80B59C
:1023CC0086B000AF0346B9607A60FB7300237B6173
:1023DC00FFF742FF78617A68B9687869FFF790FF78
:1023EC00024697F90F3011461846FFF75FFF00BF02
:1023FC001837BD4680BD80B582B000AF0346FB7177
:10240C0097F907301846FFF735FF00BF0837BD4670
:10241C0080BD80B582B000AF78607868FFF7A2FF0E
:10242C00034618460837BD4680BD80B485B000AF62
:10243C0078600023FB737B6893F82130022B08D063
:10244C007B6804229A637B68002283F82020012396
:10245C0020E07B681B681A687B681B6822F00E0200
:10246C001A607B681B681A687B681B6822F0010283
:10247C001A607B681A6C7B68DB6B012101FA02F233
:10248C005A607B68012283F821207B68002283F844
:10249C002020FB7B18461437BD4680BC70470000DB
:1024AC0080B584B000AF78600023FB737B6893F831
:1024BC002130022B05D07B6804229A630123FB7325
:1024CC0051E07B681B681A687B681B6822F00E025F
:1024DC001A607B681B681A687B681B6822F0010213
:1024EC001A607B681B68224A934229D07B681B6860
:1024FC00204A934222D07B681B681F4A93421AD011
:10250C007B681B681D4A934212D07B681B681C4A6F
:10251C0093420AD07B681B681A4A934202D14FF44B
:10252C0080130EE04FF080730BE04FF4803308E023
:10253C004FF4805305E04FF4807302E0102300E069
:10254C000123114A53607B68012283F821207B68A8
:10255C00002283F820207B685B6B002B03D07B6808
:10256C005B6B78689847FB7B18461037BD4680BD7F
:10257C00080002401C0002403000024044000240AF
:10258C00580002406C0002400000024080B48BB046
:10259C0000AF7860396000237B6200233B6269E105
:1025AC0001227B6A02FA03F3FB613B681B68FA6940
:1025BC001340BB61BA69FB699A4240F058813B6891
:1025CC005B689A4A93425ED0984A934275D8984A6F
:1025DC00934258D0964A93426FD8964A934252D01F
:1025EC00944A934269D8944A93424CD0924A93426B
:1025FC0063D8924A934246D0904A93425DD8122BAC
:10260C002AD8122B59D801A252F823F0932600088D
:10261C006D2600087F260008C1260008C726000882
:10262C00C7260008C7260008C7260008C7260008CA
:10263C00C7260008C7260008C7260008C7260008BA
:10264C00C7260008C7260008C7260008C7260008AA
:10265C007526000889260008794A934213D02CE08D
:10266C003B68DB683B6229E03B68DB6804333B6218
:10267C0024E03B68DB6808333B621FE03B68DB68A7
:10268C000C333B621AE03B689B68002B02D104239D
:10269C003B6213E03B689B68012B05D108233B622E
:1026AC007B68FA691A6109E008233B627B68FA6966
:1026BC005A6103E000233B6200E000BFBB69FF2BC3
:1026CC0001D87B6801E07B6804337B61BB69FF2B1D
:1026DC0002D87B6A9B0002E07B6A083B9B003B6153
:1026EC007B691A680F213B6901FA03F3DB431A403B
:1026FC00396A3B6901FA03F31A437B691A603B6838
:10270C005B6803F08053002B00F0B1804D4B9B694C
:10271C004C4A43F0010393614A4B9B6903F001035C
:10272C00BB60BB68484A7B6A9B08023352F8233073
:10273C00FB607B6A03F003039B000F2202FA03F396
:10274C00DB43FA681340FB607B68404A934213D02A
:10275C007B683F4A93420DD07B683E4A934207D038
:10276C007B683D4A934201D1032306E0042304E035
:10277C00022302E0012300E000237A6A02F0030244
:10278C0092009340FA681343FB602F497B6A9B08C5
:10279C000233FA6841F823203B685B6803F480330A
:1027AC00002B06D02D4B1A682C49BB6913430B60C8
:1027BC0006E02A4B1A68BB69DB43284913400B60BF
:1027CC003B685B6803F40033002B06D0234B5A683C
:1027DC002249BB6913434B6006E0204B5A68BB6926
:1027EC00DB431E4913404B603B685B6803F480136A
:1027FC00002B06D0194B9A681849BB6913438B60A0
:10280C0006E0164B9A68BB69DB43144913408B6096
:10281C003B685B6803F40013002B21D00F4BDA6884
:10282C000E49BB691343CB6021E000BF000032109E
:10283C0000003110000022100000211000001210C6
:10284C00000011100010024000000140000801407F
:10285C00000C014000100140001401400004014034
:10286C000B4BDA68BB69DB4309491340CB607B6ACD
:10287C0001337B623B681A687B6A22FA03F3002BF4
:10288C007FF48EAE00BF00BF2C37BD4680BC7047B6
:10289C000004014080B485B000AF78600B467B80AB
:1028AC007B689A687B881340002B02D00123FB7352
:1028BC0001E00023FB73FB7B18461437BD4680BC3C
:1028CC00704780B483B000AF78600B467B801346B2
:1028DC007B707B78002B03D07A887B681A6103E0CD
:1028EC007B881A047B681A6100BF0C37BD4680BC1C
:1028FC00704780B485B000AF78600B467B807B68F6
:10290C00DB68FB607A88FB6813401A04FB68D943C8
:10291C007B880B401A437B681A6100BF1437BD4695
:10292C0080BC704780B586B000AF78607B68002BA8
:10293C0001D1012372E27B681B6803F00103002BB9
:10294C0000F08780924B5B6803F00C03042B0CD0D7
:10295C008F4B5B6803F00C03082B12D18C4B5B681C
:10296C0003F48033B3F5803F0BD1894B1B6803F420
:10297C000033002B6CD07B685B68002B68D1012383
:10298C004CE27B685B68B3F5803F06D1804B1B68DB
:10299C007F4A43F4803313602EE07B685B68002B26
:1029AC000CD17B4B1B687A4A23F480331360784B31
:1029BC001B68774A23F4802313601DE07B685B68F7
:1029CC00B3F5A02F0CD1724B1B68714A43F48023D2
:1029DC0013606F4B1B686E4A43F4803313600BE03B
:1029EC006B4B1B686A4A23F480331360684B1B687B
:1029FC00674A23F4802313607B685B68002B13D039
:102A0C00FFF7FCFB386108E0FFF7F8FB02463B6977
:102A1C00D31A642B01D9032300E25D4B1B6803F42A
:102A2C000033002BF0D014E0FFF7E8FB386108E02E
:102A3C00FFF7E4FB02463B69D31A642B01D903234D
:102A4C00ECE1534B1B6803F40033002BF0D100E096
:102A5C0000BF7B681B6803F00203002B63D04C4B58
:102A6C005B6803F00C03002B0BD0494B5B6803F045
:102A7C000C03082B1CD1464B5B6803F48033002BF2
:102A8C0016D1434B1B6803F00203002B05D07B6867
:102A9C001B69012B01D00123C0E13D4B1B6823F0C6
:102AAC00F8027B685B69DB00394913430B603AE041
:102ABC007B681B69002B20D0364B01221A60FFF774
:102ACC009DFB386108E0FFF799FB02463B69D31A7E
:102ADC00022B01D90323A1E12D4B1B6803F0020348
:102AEC00002BF0D02A4B1B6823F0F8027B685B6943
:102AFC00DB00274913430B6015E0264B00221A60BC
:102B0C00FFF77CFB386108E0FFF778FB02463B6976
:102B1C00D31A022B01D9032380E11D4B1B6803F050
:102B2C000203002BF0D17B681B6803F00803002B19
:102B3C003AD07B689B69002B19D0174B01221A6085
:102B4C00FFF75CFB386108E0FFF758FB02463B6976
:102B5C00D31A022B01D9032360E10D4B5B6A03F0FE
:102B6C000203002BF0D0012000F0D8FA1CE00A4B35
:102B7C0000221A60FFF742FB38610FE0FFF73EFBC3
:102B8C0002463B69D31A022B08D9032346E100BF46
:102B9C00001002400000424280044242924B5B6AA9
:102BAC0003F00203002BE9D17B681B6803F00403DC
:102BBC00002B00F0A6800023FB758B4BDB6903F028
:102BCC008053002B0DD1884BDB69874A43F080532F
:102BDC00D361854BDB6903F08053BB60BB68012379
:102BEC00FB75824B1B6803F48073002B18D17F4B51
:102BFC001B687E4A43F480731360FFF7FFFA386159
:102C0C0008E0FFF7FBFA02463B69D31A642B01D9A3
:102C1C00032303E1754B1B6803F48073002BF0D086
:102C2C007B68DB68012B06D16F4B1B6A6E4A43F045
:102C3C00010313622DE07B68DB68002B0CD16A4B1F
:102C4C001B6A694A23F001031362674B1B6A664ACD
:102C5C0023F0040313621CE07B68DB68052B0CD1AA
:102C6C00614B1B6A604A43F0040313625E4B1B6AA0
:102C7C005D4A43F0010313620BE05B4B1B6A5A4A3B
:102C8C0023F001031362584B1B6A574A23F00403C9
:102C9C0013627B68DB68002B15D0FFF7AFFA386145
:102CAC000AE0FFF7ABFA02463B69D31A41F28832CD
:102CBC00934201D90323B1E04B4B1B6A03F002038F
:102CCC00002BEED014E0FFF799FA38610AE0FFF719
:102CDC0095FA02463B69D31A41F28832934201D9E4
:102CEC0003239BE0404B1B6A03F00203002BEED145
:102CFC00FB7D012B05D13C4BDB693B4A23F0805318
:102D0C00D3617B68DB69002B00F08780364B5B68F6
:102D1C0003F00C03082B61D07B68DB69022B46D1D6
:102D2C00334B00221A60FFF769FA386108E0FFF7AD
:102D3C0065FA02463B69D31A022B01D903236DE0D5
:102D4C00294B1B6803F00073002BF0D17B681B6AC6
:102D5C00B3F5803F08D1244B5B6823F400327B68C9
:102D6C009B68214913434B601F4B5B6823F474121F
:102D7C007B68196A7B685B6A0B431B4913434B6086
:102D8C001B4B01221A60FFF739FA386108E0FFF794
:102D9C0035FA02463B69D31A022B01D903233DE0D5
:102DAC00114B1B6803F00073002BF0D035E0104B77
:102DBC0000221A60FFF722FA386108E0FFF71EFACA
:102DCC0002463B69D31A022B01D9032326E0064B9A
:102DDC001B6803F00073002BF0D11EE07B68DB69ED
:102DEC00012B07D1012319E00010024000700040B4
:102DFC00600042420B4B5B68FB60FB6803F4803263
:102E0C007B681B6A9A4206D1FB6803F470127B68DC
:102E1C005B6A9A4201D0012300E000231846183760
:102E2C00BD4680BD0010024080B584B000AF786014
:102E3C0039607B68002B01D10123D0E06A4B1B6801
:102E4C0003F007033A689A4210D9674B1B6823F0CA
:102E5C00070265493B6813430B60634B1B6803F027
:102E6C0007033A689A4201D00123B8E07B681B68DB
:102E7C0003F00203002B20D07B681B6803F00403D3
:102E8C00002B05D0594B5B68584A43F4E063536000
:102E9C007B681B6803F00803002B05D0534B5B6861
:102EAC00524A43F460535360504B5B6823F0F0027A
:102EBC007B689B684D4913434B607B681B6803F030
:102ECC000103002B40D07B685B68012B07D1474B7B
:102EDC001B6803F40033002B15D101237FE07B68C2
:102EEC005B68022B07D1414B1B6803F00073002B6E
:102EFC0009D1012373E03D4B1B6803F00203002B47
:102F0C0001D101236BE0394B5B6823F003027B6832
:102F1C005B68364913434B60FFF770F9F8600AE0C1
:102F2C00FFF76CF90246FB68D31A41F288329342E0
:102F3C0001D9032353E02D4B5B6803F00C027B6833
:102F4C005B689B009A42EBD1274B1B6803F007038D
:102F5C003A689A4210D2244B1B6823F0070222498C
:102F6C003B6813430B60204B1B6803F007033A6864
:102F7C009A4201D0012332E07B681B6803F0040302
:102F8C00002B08D0194B5B6823F4E0627B68DB688C
:102F9C00164913434B607B681B6803F00803002B36
:102FAC0009D0124B5B6823F460527B681B69DB0011
:102FBC000E4913434B6000F021F802460B4B5B6843
:102FCC001B0903F00F030A49CB5C22FA03F3094AED
:102FDC001360094B1B681846FFF7CEF80023184600
:102FEC001037BD4680BD00BF0020024000100240DB
:102FFC00745300082C0000203000002090B48AB0DC
:10300C0000AF294B3C1D0FCB84E80F0040F201238D
:10301C003B800023FB610023BB6100237B62002308
:10302C007B6100233B62214B5B68FB61FB6903F016
:10303C000C03042B02D0082B03D02BE01C4B3B625F
:10304C002BE0FB699B0C03F00F0328333B4413F874
:10305C00243C7B61FB6903F48033002B12D0134BAF
:10306C005B685B0C03F0010328333B4413F8283CEA
:10307C00BB617B690E4A03FB02F2BB69B2FBF3F343
:10308C007B6204E07B690B4A02FB03F37B627B6A85
:10309C003B6202E0064B3B6200BF3B6A1846283796
:1030AC00BD4690BC704700BF505300080010024052
:1030BC0000127A0000093D0080B400AF024B1B687F
:1030CC001846BD4680BC70472C00002080B500AF70
:1030DC00FFF7F2FF0246054B5B681B0A03F0070380
:1030EC000349CB5C22FA03F3184680BD0010024062
:1030FC008453000880B500AFFFF7DEFF0246054B96
:10310C005B68DB0A03F007030349CB5C22FA03F389
:10311C00184680BD001002408453000880B485B06E
:10312C0000AF78600A4B1B680A4AA2FB03235B0AB8
:10313C007A6802FB03F3FB6000BFFB685A1EFA605F
:10314C00002BF9D100BF00BF1437BD4680BC7047BF
:10315C002C000020D34D621080B582B000AF786097
:10316C007B68002B01D1012341E07B6893F83D3053
:10317C00DBB2002B06D17B68002283F83C207868F8
:10318C00FEF768FE7B68022283F83D207B681A6894
:10319C007B6804331946104600F028FC7B6801223A
:1031AC0083F846207B68012283F83E207B6801224D
:1031BC0083F83F207B68012283F840207B68012242
:1031CC0083F841207B68012283F842207B6801222E
:1031DC0083F843207B68012283F844207B6801221A
:1031EC0083F845207B68012283F83D200023184694
:1031FC000837BD4680BD000080B485B000AF786054
:10320C007B6893F83D30DBB2012B01D001233AE00F
:10321C007B68022283F83D207B681B68DA687B6838
:10322C001B6842F00102DA607B681B68184A934203
:10323C000ED07B681B68B3F1804F09D07B681B688C
:10324C00144A934204D07B681B68134A934211D1F1
:10325C007B681B689B6803F00703FB60FB68062B0D
:10326C0010D07B681B681A687B681B6842F00102EF
:10327C001A6007E07B681B681A687B681B6842F061
:10328C0001021A60002318461437BD4680BC7047F3
:10329C00002C0140000400400008004080B582B0C2
:1032AC0000AF78607B68002B01D1012341E07B6883
:1032BC0093F83D30DBB2002B06D17B68002283F8FB
:1032CC003C20786800F039F87B68022283F83D20B6
:1032DC007B681A687B6804331946104600F086FB3D
:1032EC007B68012283F846207B68012283F83E200C
:1032FC007B68012283F83F207B68012283F8402001
:10330C007B68012283F841207B68012283F84220EC
:10331C007B68012283F843207B68012283F84420D8
:10332C007B68012283F845207B68012283F83D20CD
:10333C00002318460837BD4680BD80B483B000AF6B
:10334C00786000BF0C37BD4680BC704780B584B038
:10335C0000AF786039603B68002B09D17B6893F82B
:10336C003E30DBB2012B14BF01230023DBB222E081
:10337C003B68042B09D17B6893F83F30DBB2012BFF
:10338C0014BF01230023DBB215E03B68082B09D1E5
:10339C007B6893F84030DBB2012B14BF0123002370
:1033AC00DBB208E07B6893F84130DBB2012B14BF31
:1033BC0001230023DBB2002B01D001235EE03B682C
:1033CC00002B04D17B68022283F83E2013E03B687B
:1033DC00042B04D17B68022283F83F200BE03B686E
:1033EC00082B04D17B68022283F8402003E07B6821
:1033FC00022283F841207B681B6801223968184639
:10340C0000F074FD7B681B681E4A934207D17B68F1
:10341C001B685A6C7B681B6842F400425A647B68D8
:10342C001B68184A93420ED07B681B68B3F1804F1F
:10343C0009D07B681B68144A934204D07B681B68D4
:10344C00124A934211D17B681B689B6803F00703F7
:10345C00FB60FB68062B10D07B681B681A687B68C6
:10346C001B6842F001021A6007E07B681B681A684F
:10347C007B681B6842F001021A6000231846103763
:10348C00BD4680BD002C01400004004000080040F7
:10349C0080B582B000AF78607B681B681B6903F055
:1034AC000203022B22D17B681B68DB6803F002034A
:1034BC00022B1BD17B681B686FF002021A617B68C0
:1034CC0001221A777B681B689B6903F00303002BAE
:1034DC0003D0786800F06FFA05E0786800F062FAC3
:1034EC00786800F071FA7B6800221A777B681B6899
:1034FC001B6903F00403042B22D17B681B68DB6877
:10350C0003F00403042B1BD17B681B686FF00402CF
:10351C001A617B6802221A777B681B689B6903F42B
:10352C004073002B03D0786800F045FA05E078680A
:10353C0000F038FA786800F047FA7B6800221A77B6
:10354C007B681B681B6903F00803082B22D17B687E
:10355C001B68DB6803F00803082B1BD17B681B6816
:10356C006FF008021A617B6804221A777B681B686B
:10357C00DB6903F00303002B03D0786800F01BFA1F
:10358C0005E0786800F00EFA786800F01DFA7B68A8
:10359C0000221A777B681B681B6903F01003102B41
:1035AC0022D17B681B68DB6803F01003102B1BD146
:1035BC007B681B686FF010021A617B6808221A770F
:1035CC007B681B68DB6903F44073002B03D07868BD
:1035DC0000F0F1F905E0786800F0E4F9786800F0A3
:1035EC00F3F97B6800221A777B681B681B6903F070
:1035FC000103012B0ED17B681B68DB6803F0010310
:10360C00012B07D17B681B686FF001021A61786887
:10361C00FEF766FD7B681B681B6903F08003802B3B
:10362C000ED17B681B68DB6803F08003802B07D10D
:10363C007B681B686FF080021A61786800F0E1FC0F
:10364C007B681B681B6903F04003402B0ED17B6821
:10365C001B68DB6803F04003402B07D17B681B68B9
:10366C006FF040021A61786800F0B7F97B681B684C
:10367C001B6903F02003202B0ED17B681B68DB68D1
:10368C0003F02003202B07D17B681B686FF020020E
:10369C001A61786800F0ACFC00BF0837BD4680BDED
:1036AC0080B584B000AFF860B9607A60FB6893F8BD
:1036BC003C30012B01D10223ACE0FB68012283F8E2
:1036CC003C207B680C2B00F29F8001A252F823F067
:1036DC00113700081538000815380008153800088F
:1036EC00513700081538000815380008153800083F
:1036FC0093370008153800081538000815380008ED
:10370C00D3370008FB681B68B968184600F0D0F97D
:10371C00FB681B689A69FB681B6842F008029A6197
:10372C00FB681B689A69FB681B6822F004029A61AB
:10373C00FB681B689969BB681A69FB681B680A43BC
:10374C009A6162E0FB681B68B968184600F016FACB
:10375C00FB681B689A69FB681B6842F400629A61FB
:10376C00FB681B689A69FB681B6822F480629A618B
:10377C00FB681B689969BB681B691A02FB681B68AC
:10378C000A439A6141E0FB681B68B968184600F06F
:10379C005FFAFB681B68DA69FB681B6842F0080279
:1037AC00DA61FB681B68DA69FB681B6822F00402AB
:1037BC00DA61FB681B68D969BB681A69FB681B680E
:1037CC000A43DA6121E0FB681B68B968184600F00F
:1037DC00A9FAFB681B68DA69FB681B6842F4006293
:1037EC00DA61FB681B68DA69FB681B6822F480628B
:1037FC00DA61FB681B68D969BB681B691A02FB6834
:10380C001B680A43DA6100E000BFFB68002283F802
:10381C003C20002318461037BD4680BD80B584B0CF
:10382C0000AF786039607B6893F83C30012B01D194
:10383C000223B3E07B68012283F83C207B680222E0
:10384C0083F83D207B681B689B68FB60FB6823F05A
:10385C007703FB60FB6823F47F43FB607B681B688A
:10386C00FA689A603B681B68B3F5005F3ED0B3F50D
:10387C00005F00F28780B3F5805F00F08580B3F5C0
:10388C00805F7FD8702B1AD0702B7BD8602B50D0D8
:10389C00602B77D8502B3CD0502B73D8402B58D062
:1038AC00402B6FD8302B64D0302B6BD8202B60D0B2
:1038BC00202B67D8002B5CD0102B5AD062E07B6891
:1038CC0018683B6899683B685A683B68DB6800F08D
:1038DC00EEFA7B681B689B68FB60FB6843F0770320
:1038EC00FB607B681B68FA689A604EE07B6818681E
:1038FC003B6899683B685A683B68DB6800F0D7FA0C
:10390C007B681B689A687B681B6842F480429A60EB
:10391C003BE07B6818683B6859683B68DB681A4673
:10392C0000F04EFA7B681B685021184600F0A5FA8F
:10393C002BE07B6818683B6859683B68DB681A4663
:10394C0000F06CFA7B681B686021184600F095FA51
:10395C001BE07B6818683B6859683B68DB681A4653
:10396C0000F02EFA7B681B684021184600F085FA9F
:10397C000BE07B681A683B681B681946104600F020
:10398C007CFA02E000BF00E000BF7B68012283F8F4
:10399C003D207B68002283F83C200023184610371A
:1039AC00BD4680BD80B483B000AF786000BF0C37DB
:1039BC00BD4680BC704780B483B000AF786000BF58
:1039CC000C37BD4680BC704780B483B000AF7860C4
:1039DC0000BF0C37BD4680BC704780B483B000AFCD
:1039EC00786000BF0C37BD4680BC704780B485B092
:1039FC0000AF786039607B681B68FB607B68294A84
:103A0C0093420BD07B68B3F1804F07D07B68264A7A
:103A1C00934203D07B68254A934208D1FB6823F07C
:103A2C007003FB603B685B68FA681343FB607B6860
:103A3C001C4A93420BD07B68B3F1804F07D07B6854
:103A4C00194A934203D07B68184A934208D1FB6809
:103A5C0023F44073FB603B68DB68FA681343FB603C
:103A6C00FB6823F080023B685B691343FB607B6857
:103A7C00FA681A603B689A687B68DA623B681A6875
:103A8C007B689A627B68074A934203D13B681A6948
:103A9C007B681A637B6801225A6100BF1437BD46EC
:103AAC0080BC7047002C014000040040000800401E
:103ABC0080B487B000AF786039607B681B6A23F0F4
:103ACC0001027B681A627B681B6A7B617B685B689E
:103ADC003B617B689B69FB60FB6823F07003FB60B8
:103AEC00FB6823F00303FB603B681B68FA68134315
:103AFC00FB607B6923F002037B613B689B687A69FE
:103B0C0013437B617B681C4A93420CD17B6923F085
:103B1C0008037B613B68DB687A6913437B617B69D3
:103B2C0023F004037B617B68134A934211D13B69F8
:103B3C0023F480733B613B6923F400733B613B6866
:103B4C005B693A6913433B613B689B693A69134370
:103B5C003B617B683A695A607B68FA689A613B689A
:103B6C005A687B685A637B687A691A6200BF1C3793
:103B7C00BD4680BC704700BF002C014080B487B0AC
:103B8C0000AF786039607B681B6A23F010027B6899
:103B9C001A627B681B6A7B617B685B683B617B6834
:103BAC009B69FB60FB6823F4E043FB60FB6823F438
:103BBC004073FB603B681B681B02FA681343FB6095
:103BCC007B6923F020037B613B689B681B017A694E
:103BDC0013437B617B681D4A93420DD17B6923F0B3
:103BEC0080037B613B68DB681B017A6913437B6153
:103BFC007B6923F040037B617B68144A934213D1A9
:103C0C003B6923F480633B613B6923F400633B61B4
:103C1C003B685B699B003A6913433B613B689B695A
:103C2C009B003A6913433B617B683A695A607B6835
:103C3C00FA689A613B685A687B689A637B687A6910
:103C4C001A6200BF1C37BD4680BC7047002C014077
:103C5C0080B487B000AF786039607B681B6A23F44E
:103C6C0080727B681A627B681B6A7B617B685B680D
:103C7C003B617B68DB69FB60FB6823F07003FB60D6
:103C8C00FB6823F00303FB603B681B68FA68134373
:103C9C00FB607B6923F400737B613B689B681B02B0
:103CAC007A6913437B617B681D4A93420DD17B6912
:103CBC0023F400637B613B68DB681B027A69134366
:103CCC007B617B6923F480637B617B68144A93423C
:103CDC0013D13B6923F480533B613B6923F40053BC
:103CEC003B613B685B691B013A6913433B613B6871
:103CFC009B691B013A6913433B617B683A695A60C3
:103D0C007B68FA68DA613B685A687B68DA637B68BF
:103D1C007A691A6200BF1C37BD4680BC704700BF71
:103D2C00002C014080B487B000AF786039607B68AC
:103D3C001B6A23F480527B681A627B681B6A3B61A6
:103D4C007B685B687B617B68DB69FB60FB6823F4E9
:103D5C00E043FB60FB6823F44073FB603B681B682B
:103D6C001B02FA681343FB603B6923F400533B616D
:103D7C003B689B681B033A6913433B617B680F4AA2
:103D8C00934209D17B6923F480437B613B685B6977
:103D9C009B017A6913437B617B687A695A607B6803
:103DAC00FA68DA613B685A687B681A647B683A691E
:103DBC001A6200BF1C37BD4680BC7047002C014006
:103DCC0080B487B000AFF860B9607A60FB681B6A9A
:103DDC007B61FB681B6A23F00102FB681A62FB68BB
:103DEC009B693B613B6923F0F0033B617B681B01E2
:103DFC003A6913433B617B6923F00A037B617A695F
:103E0C00BB6813437B61FB683A699A61FB687A690A
:103E1C001A6200BF1C37BD4680BC704780B487B0A7
:103E2C0000AFF860B9607A60FB681B6A23F010027F
:103E3C00FB681A62FB689B697B61FB681B6A3B61D0
:103E4C007B6923F470437B617B681B037A691343A2
:103E5C007B613B6923F0A0033B61BB681B013A69A2
:103E6C0013433B61FB687A699A61FB683A691A6291
:103E7C0000BF1C37BD4680BC704780B485B000AF16
:103E8C00786039607B689B68FB60FB6823F070038B
:103E9C00FB603A68FB68134343F00703FB607B68E5
:103EAC00FA689A6000BF1437BD4680BC704780B476
:103EBC0087B000AFF860B9607A603B60FB689B68C4
:103ECC007B617B6923F47F437B613B681A027B68CF
:103EDC001A43BB6813437A6913437B61FB687A69A5
:103EEC009A6000BF1C37BD4680BC704780B487B059
:103EFC0000AFF860B9607A60BB6803F01F03012261
:103F0C0002FA03F37B61FB681A6A7B69DB431A4094
:103F1C00FB681A62FB681A6ABB6803F01F037968B6
:103F2C0001FA03F31A43FB681A6200BF1C37BD4643
:103F3C0080BC704780B485B000AF786039607B6816
:103F4C0093F83C30012B01D1022346E07B6801221F
:103F5C0083F83C207B68022283F83D207B681B6839
:103F6C005B68FB607B681B689B68BB60FB6823F02D
:103F7C007003FB603B681B68FA681343FB607B684B
:103F8C001B68FA685A607B681B68164A93420ED00D
:103F9C007B681B68B3F1804F09D07B681B68124AA1
:103FAC00934204D07B681B68104A93420CD1BB68C7
:103FBC0023F08003BB603B685B68BA681343BB604B
:103FCC007B681B68BA689A607B68012283F83D2085
:103FDC007B68002283F83C20002318461437BD462A
:103FEC0080BC7047002C01400004004000080040D9
:103FFC0080B483B000AF786000BF0C37BD4680BC86
:10400C00704780B483B000AF786000BF0C37BD46FA
:10401C0080BC704780B582B000AF78607B68002BA5
:10402C0001D101233FE07B6893F83D30DBB2002BDC
:10403C0006D17B68002283F83C207868FDF77CFF72
:10404C007B68242283F83D207B681B68DA687B68D8
:10405C001B6822F40052DA60786800F025FC7B685B
:10406C001B681A697B681B6822F490421A617B6892
:10407C001B685A697B681B6822F02A025A617B68AC
:10408C001B68DA687B681B6842F40052DA607B6854
:10409C0000221A647B68202283F83D207B68202252
:1040AC0083F83E20002318460837BD4680BD80B5F6
:1040BC008AB002AFF860B9603B601346FB80002306
:1040CC007B61FB6893F83D30DBB2202B7CD1BB6865
:1040DC00002B02D0FB88002B01D1012375E0FB687B
:1040EC0093F83C30012B01D102236EE0FB680122D6
:1040FC0083F83C20FB6800221A64FB68212283F8B9
:10410C003D20FEF77BF87861FB68FA889A84FB689F
:10411C00FA88DA84FB689B68B3F5805F08D1FB688A
:10412C001B69002B04D10023FB61BB68BB6103E05E
:10413C00BB68FB610023BB61FB68002283F83C2059
:10414C002AE03B6800937B6900228021F86800F02C
:10415C0011FA0346002B01D0032336E0FB69002B38
:10416C000BD1BB691B881A46FB681B68C2F308029B
:10417C005A60BB690233BB6107E0FB691A78FB68C4
:10418C001B685A60FB690133FB61FB68DB8C9BB2DB
:10419C00013B9AB2FB68DA84FB68DB8C9BB2002B88
:1041AC00CFD13B6800937B6900224021F86800F076
:1041BC00E1F90346002B01D0032306E0FB68202223
:1041CC0083F83D20002300E0022318462037BD462B
:1041DC0080BD000080B58AB000AF78607B681B683A
:1041EC001B687B627B681B68DB683B627B681B68B7
:1041FC005B69FB610023BB6100237B617B6A03F07D
:10420C000F03BB61BB69002B0DD17B6A03F020034C
:10421C00002B08D03B6A03F02003002B03D07868F6
:10422C0000F099FA7BE1BB69002B00F0B180FB69CF
:10423C0003F00103002B05D13B6A03F49073002BB0
:10424C0000F0A6807B6A03F00103002B0AD03B6AC6
:10425C0003F48073002B05D07B681B6C43F00102C8
:10426C007B681A647B6A03F00403002B0AD0FB6999
:10427C0003F00103002B05D07B681B6C43F002029A
:10428C007B681A647B6A03F00203002B0AD0FB697B
:10429C0003F00103002B05D07B681B6C43F0040278
:1042AC007B681A647B6A03F00803002B0FD03B6A0F
:1042BC0003F02003002B04D1FB6903F00103002B56
:1042CC0005D07B681B6C43F008027B681A647B6822
:1042DC001B6C002B00F01E817B6A03F02003002B6B
:1042EC0007D03B6A03F02003002B02D0786800F063
:1042FC0032FA7B681B685B6903F04003002B14BF28
:10430C0001230023DBB27B617B681B6C03F0080389
:10431C00002B02D17B69002B31D0786800F074F946
:10432C007B681B685B6903F04003002B23D07B6820
:10433C001B685A697B681B6822F040025A617B68D3
:10434C009B6B002B13D07B689B6B764A5A637B6804
:10435C009B6B1846FEF7A4F80346002B16D07B681F
:10436C009B6B5B6B7A68926B104698470EE0786893
:10437C0000F0ECF80AE0786800F0E8F806E07868FD
:10438C0000F0E4F87B6800221A64C3E000BFC1E0CF
:10439C007B681B6B012B40F0A1807B6A03F0100340
:1043AC00002B00F09B803B6A03F01003002B00F005
:1043BC0095800023FB607B681B681B68FB607B6837
:1043CC001B685B68FB60FB687B681B685B6903F0C0
:1043DC004003002B4ED07B689B6B1B685B683B8259
:1043EC003B8A002B00F098807B689B8D3A8A9A421E
:1043FC0080F092807B683A8ADA857B689B6B9B693C
:10440C00202B2BD07B681B68DA687B681B6822F436
:10441C008072DA607B681B685A697B681B6822F0C3
:10442C0001025A617B681B685A697B681B6822F021
:10443C0040025A617B68202283F83E207B68002270
:10444C001A637B681B68DA687B681B6822F01002B1
:10445C00DA607B689B6B1846FDF7E7FF7B689A8DEB
:10446C007B68DB8D9BB2D31A9BB21946786800F03F
:10447C0076F851E07B689A8D7B68DB8D9BB2D31A02
:10448C007B827B68DB8D9BB2002B47D07B8A002B19
:10449C0044D07B681B68DA687B681B6822F49072D6
:1044AC00DA607B681B685A697B681B6822F0010222
:1044BC005A617B68202283F83E207B6800221A63B5
:1044CC007B681B68DA687B681B6822F01002DA6074
:1044DC007B8A1946786800F042F81FE07B6A03F08B
:1044EC008003002B08D03B6A03F08003002B03D021
:1044FC00786800F0C9F812E07B6A03F04003002BE7
:10450C000DD03B6A03F04003002B08D0786800F014
:10451C000AF904E000BF02E000BF00E000BF28374A
:10452C00BD4680BD6D46000880B483B000AF786096
:10453C0000BF0C37BD4680BC704780B483B000AF61
:10454C00786000BF0C37BD4680BC704780B483B028
:10455C0000AF786000BF0C37BD4680BC704780B49C
:10456C0083B000AF78600B467B8000BF0C37BD4634
:10457C0080BC704780B584B000AFF860B9603B6018
:10458C001346FB712CE0BB69B3F1FF3F28D0BB692C
:10459C00002B07D0FDF732FE02463B68D31ABA69EE
:1045AC009A421DD2FB681B68DA68FB681B6822F410
:1045BC00D072DA60FB681B685A69FB681B6822F0D2
:1045CC0001025A61FB68202283F83D20FB682022FF
:1045DC0083F83E20FB68002283F83C2003230FE085
:1045EC00FB681B681A68BB681340BA689A420CBF18
:1045FC0001230023DBB21A46FB799A42C3D0002375
:10460C0018461037BD4680BD80B483B000AF7860CB
:10461C007B681B68DA687B681B6822F49072DA602E
:10462C007B681B685A697B681B6822F001025A611F
:10463C007B681B6B012B07D17B681B68DA687B6876
:10464C001B6822F01002DA607B68202283F83E207F
:10465C007B6800221A6300BF0C37BD4680BC7047D4
:10466C0080B584B000AF78607B685B6AFB60FB68E8
:10467C000022DA85FB680022DA84F868FFF766FF0F
:10468C0000BF1037BD4680BD80B485B000AF7860E8
:10469C007B6893F83D30DBB2212B3ED17B689B6865
:1046AC00B3F5805F14D17B681B69002B10D17B683C
:1046BC001B6AFB60FB681B881A467B681B68C2F38D
:1046CC0008025A607B681B6A9A1C7B681A6208E0B5
:1046DC007B681B6A591C7A6811621A787B681B68A4
:1046EC005A607B68DB8C9BB2013B9BB27A681946A3
:1046FC00D184002B0FD17B681B68DA687B681B6840
:10470C0022F08002DA607B681B68DA687B681B68C1
:10471C0042F04002DA60002300E00223184614370E
:10472C00BD4680BC704780B582B000AF78607B68B6
:10473C001B68DA687B681B6822F04002DA607B68D1
:10474C00202283F83D207868FFF7EEFE0023184600
:10475C000837BD4680BD80B586B000AF78607B68F9
:10476C0093F83E30DBB2222B40F099807B689B683B
:10477C00B3F5805F17D17B681B69002B13D1002325
:10478C007B617B689B6A3B617B681B685B689BB247
:10479C00C3F308039AB23B691A807B689B6A9A1C24
:1047AC007B689A6226E07B689B6A7B6100233B6195
:1047BC007B689B68B3F5805F07D07B689B68002B98
:1047CC000AD17B681B69002B06D17B681B685B6870
:1047DC00DAB27B691A7008E07B681B685B68DBB235
:1047EC0003F07F03DAB27B691A707B689B6A5A1CF0
:1047FC007B689A627B68DB8D9BB2013B9BB27A68CB
:10480C001946D185002B48D17B681B68DA687B6818
:10481C001B6822F02002DA607B681B68DA687B6810
:10482C001B6822F48072DA607B681B685A697B68AB
:10483C001B6822F001025A617B68202283F83E201B
:10484C007B681B6B012B23D17B6800221A637B686E
:10485C001B68DA687B681B6822F01002DA607B68E0
:10486C001B681B6803F01003102B0AD10023FB609C
:10487C007B681B681B68FB607B681B685B68FB6064
:10488C00FB687B689B8D19467868FFF768FE02E031
:10489C007868FFF752FE002302E0002300E00223B9
:1048AC0018461837BD4680BD80B584B000AF78601F
:1048BC007B681B681B6923F440517B68DA687B6852
:1048CC001B680A431A617B689A687B681B691A43E8
:1048DC007B685B691343BB607B681B68DB6823F4F4
:1048EC00B05323F00C037A681268B9680B43D36099
:1048FC007B681B685B6923F440717B689A697B68F1
:10490C001B680A435A617B681B682C4A934203D18B
:10491C00FEF7F0FBF86002E0FEF7D8FBF860FA68EF
:10492C0013469B0013449A001A447B685B689B00F7
:10493C00B2FBF3F3224AA2FB03235B091901FA68C9
:10494C0013469B0013449A001A447B685B689B00D7
:10495C00B2FBF3F21A4BA3FB02035B09642000FBCE
:10496C0003F3D31A1B013233154AA2FB03235B0951
:10497C0003F0F0031944FA6813469B0013449A00A1
:10498C001A447B685B689B00B2FBF3F20C4BA3FBF5
:10499C0002035B09642000FB03F3D31A1B013233BF
:1049AC00074AA2FB03235B0903F00F027B681B6819
:1049BC000A449A6000BF1037BD4680BD00380140E4
:1049CC001F85EB51014B1868704700BF3800002061
:1049DC0070B500260C4D0D4C641BA410A64209D1D9
:1049EC0000F09CFC00260A4D0A4C641BA410A64245
:1049FC0005D170BD55F8043B98470136EEE755F8E4
:104A0C00043B98470136F2E7C0530008C053000836
:104A1C00C0530008C453000803460244934200D11B
:104A2C00704703F8011BF9E70EB46FF0004100B5B5
:104A3C009CB01DAB0290069007910491084809495F
:104A4C0053F8042B0591006802A9019300F068F853
:104A5C000022029B1A701CB05DF804EB03B0704787
:104A6C00380000200802FFFF2DE9F0478E688246CF
:104A7C009E420C4690461F4638D88A8912F4906F95
:104A8C0032D0256809690133A5EB010965694B44EE
:104A9C0005EB450505EBD5756D109D4238BF1D46E0
:104AAC00530531D5294600F06FFB064650B90C234F
:104ABC004FF0FF30CAF80030A38943F04003A381C4
:104ACC00BDE8F0874A46216900F0CEFAA38923F4A9
:104ADC00906343F08003A38126614E4426603E46DA
:104AEC006561A5EB0905A560BE4200D93E4632467C
:104AFC004146206800F0C6FAA36800209B1BA36007
:104B0C00236833442360DBE72A4600F0B1FB0646FA
:104B1C000028E1D15046216900F0CEFAC7E7000029
:104B2C002DE9F04F98468B8907461B060D46144617
:104B3C009DB00ED50B6963B9402100F025FB2860B0
:104B4C00286120B90C233B604FF0FF30D1E04023AB
:104B5C006B610023099320238DF8293030234FF00B
:104B6C000109CDF80C80DFF8A4818DF82A3023469A
:104B7C009A4613F8012B0AB1252AF9D1BAEB040B8A
:104B8C000BD05B46224629463846FFF76DFF0130B5
:104B9C0000F0AA80099A5A4409929AF80030002B26
:104BAC0000F0A28000234FF0FF32CDE905230AF17B
:104BBC00010A049307938DF853301A935446052237
:104BCC0014F8011B514800F041FA049AD8B9D006E8
:104BDC0044BF20238DF85330110744BF2B238DF88D
:104BEC0053309AF800302A2B15D0544600204FF041
:104BFC000A0C079A214611F8013B303B092B4ED980
:104C0C00B0B1079214E0A0EB080309FA03F31343C5
:104C1C00A2460493D2E7039B191D1B680391002B3A
:104C2C00BBBF5B4242F0020207930793B8BF0492EA
:104C3C0023782E2B0CD163782A2B35D1039B02348D
:104C4C001A1D1B680392002BB8BF4FF0FF3305935E
:104C5C00DFF8BCA003225046217800F0F7F940B1F0
:104C6C004023A0EB0A0003FA00F0049B0134034339
:104C7C00049314F8011B062226488DF8281000F026
:104C8C00E5F9002838D0244B1BBB039B073323F0DA
:104C9C00070308330393099B3344099367E70C46D6
:104CAC0001200CFB0232A5E700234FF00A0C194639
:104CBC0001340593204610F8012B303A092A03D908
:104CCC00002BC5D00591C3E7044601230CFB012141
:104CDC00F0E703AB00932A463846104B04A9AFF318
:104CEC000080421C0646D6D1AB895B063FF52CAF43
:104CFC0009981DB0BDE8F08F03AB00932A463846E7
:104D0C00064B04A900F07CF8EBE700BF8C530008BD
:104D1C00925300089653000800000000754A0008E2
:104D2C002DE9F047164699468A680B690746934267
:104D3C00B8BF1346336091F843200C46DDF8208051
:104D4C000AB1013333602368990642BF33680233DA
:104D5C003360256815F0060506D104F1190AE368DD
:104D6C0032689B1AAB4228DC94F84320131E22684D
:104D7C0018BF012392062DD44946384604F143024C
:104D8C00C047013020D02368E56803F00603042BEC
:104D9C0018BF002532684FF00006A36808BFAD1A93
:104DAC00226908BF25EAE5759342C4BF9B1AED182A
:104DBC001A34B5421AD1002008E001235246494664
:104DCC003846C047013003D14FF0FF30BDE8F087C3
:104DDC000135C4E73020E11881F843005A1C94F8DF
:104DEC0045102244023382F84310C5E701232246C2
:104DFC0049463846C0470130E6D00136D9E70000B5
:104E0C002DE9FF470F7E9146782F80460C469A4637
:104E1C000C9D01F1430207D8622F0AD8002F00F035
:104E2C00D980582F00F0A48004F1420584F8427018
:104E3C003AE0A7F16303152BF6D801A151F823F042
:104E4C00A54E0008B94E0008354E0008354E000836
:104E5C00354E0008354E0008B94E0008354E000896
:104E6C00354E0008354E0008354E0008C74F000877
:104E7C00E94E0008A94F0008354E0008354E0008D1
:104E8C00E94F0008354E0008E94E0008354E000881
:104E9C00354E0008B14F00082B681A1D1B682A609C
:104EAC0004F1420584F842300123A4E0206829680B
:104EBC00060601F104030AD50E682B60002E03DAF6
:104ECC002D23764284F843300A235E4819E00E689D
:104EDC0010F0400F2B6018BF36B2EFE72B6820683C
:104EEC00191D2960010601D51E6802E04606FBD596
:104EFC001E886F2F0CBF08230A235248002184F808
:104F0C0043106568002DA8BF2168A560A4BF21F0DF
:104F1C00040121600EB9002D4DD01546B6FBF3F1FE
:104F2C0003FB1167C75D05F8017D3746BB420E4692
:104F3C00F4D9082B0BD12368DE0708D523696168E7
:104F4C009942DEBF302305F8013C05F1FF35521BB9
:104F5C0022614B4621464046CDF800A003AAFFF73C
:104F6C00DFFE01304CD14FF0FF3004B0BDE8F087CC
:104F7C00344881F845702968236851F8046B29601E
:104F8C001D0614D5DF0744BF43F0200323601EB970
:104F9C00236823F0200323601023AFE7236843F03A
:104FAC00200323607823284884F84530E3E759062A
:104FBC0048BFB6B2E6E71546BBE72B682668181D56
:104FCC006169286035061B6801D5196002E070061E
:104FDC00FBD51980002315462361BAE72B68002105
:104FEC001A1D2A601D686268284600F02FF808B167
:104FFC00401B606063682361002384F84330A8E79A
:10500C002A46494640462369D0470130ABD0236835
:10501C009B0713D4E068039B9842B8BF1846A4E7DB
:10502C000123324649464046D04701309BD00135DA
:10503C00E36803995B1AAB42F2DCEBE7002504F161
:10504C001906F5E79D530008AE530008034610B54A
:10505C00C9B202449342184601D1002003E00478FF
:10506C0001338C42F6D110BD0A44914200F1FF335A
:10507C0000D1704710B511F8014B914203F8014F64
:10508C00F9D110BD884210B501EB020402D984425B
:10509C00234607D8431EA14208D011F8012B03F870
:1050AC00012FF8E7014602448A4200D110BD13F8E3
:1050BC00014D02F8014DF7E738B50546002940D0FF
:1050CC0051F8043C0C1F002BB8BFE41800F010F989
:1050DC001C4A136833B9636014602846BDE8384035
:1050EC0000F00CB9A34208D9206821188B4201BFEB
:1050FC0019685B6809182160EDE71A465B680BB10B
:10510C00A342FAD911685018A0420BD1206801446F
:10511C00501883421160E0D118685B68014411603B
:10512C005360DAE702D90C232B60D6E720682118EC
:10513C008B4201BF19685B68091821606360546079
:10514C00CBE738BD7805002070B50E4E0C463168A3
:10515C00054611B900F0BCF830602146284600F035
:10516C00B7F8431C0AD0C41C24F00304A04207D097
:10517C00211A284600F0ACF8013001D14FF0FF3471
:10518C00204670BD7C0500202DE9F041CD1C25F09A
:10519C00030508350C2D38BF0C25002D074601DB07
:1051AC00A94205D90C2300263B603046BDE8F081AE
:1051BC002E4E00F09DF833681C4634BB2946384609
:1051CC00FFF7C2FF431C04464DD134682646002E1F
:1051DC0040D123683146384604EB030800F078F8D8
:1051EC0080453AD1216803356D1A25F00305083541
:1051FC000C2D38BF0C2538462946FFF7A5FF01308A
:10520C002BD023682B4423600EE02268521B1ED443
:10521C000B2A16D96119A342256018BF596063681F
:10522C0008BF316062514B60384604F10B0600F048
:10523C0065F826F00706231DF21AB6D09B1BA35067
:10524C00B3E76268A3420CBF32605A60ECE72346B6
:10525C006468B2E734467668B9E70C2338463B609D
:10526C0000F04CF8A1E72560DEE700BF78050020D0
:10527C002DE9F041804614460E4621B91146BDE891
:10528C00F041FFF781BF2AB9FFF716FF25462846E4
:10529C00BDE8F08100F038F88442074602D8B4EB40
:1052AC00500F12D821464046FFF76EFF05460028E6
:1052BC00EDD0BC422246314628BF3A46FFF7D4FE19
:1052CC0031464046FFF7F8FEE1E73546DFE70000E0
:1052DC0038B50023054D044608462B60FCF7C4FE88
:1052EC00431C02D12B6803B1236038BD800500201C
:1052FC00014800F011B800BF84050020014800F0FF
:10530C000CB800BF8405002051F8043C181F002B7A
:10531C00BCBF0B58C018704770477047F8B500BF3A
:10532C00F8BC08BC9E467047F8B500BFF8BC08BC7A
:04533C009E467047D2
:1053400021375345473A00002573256423000000A8
:1053500002030405060708090A0B0C0D0E0F1010B6
:105360003F065B4F666D7D077F6F777C395E797195
:105370000000000000000000000000000102030423
:10538000060708090000000001020304232D302B4A
:105390002000686C4C006566674546470030313236
:1053A000333435363738394142434445460030318D
:1053B00032333435363738396162636465660000EC
:0453C00031010008AF
:0453C4000D010008CF
:1053C80001000000020000000300000005000000CA
:1053D80003000000020000000500000003000000B8
:1053E8001E0000007C0100000A0000000024F400F8
:1053F80010000000010000003C0000200000000038
:105408000000000000000000000000000000000094
:105418000000000000000000000000000000000084
:105428000000000000000000000000000000000074
:105438000000000000000000000000000000000064
:105448000000000000000000000000000000000054
:0C54580000000000000000000000000048
:040000050800210DC1
:00000001FF
