:020000040800F2
:100000000050002061180008511700085717000819
:100010005D1700086317000869170008000000005A
:100020000000000000000000000000006F17000842
:100030007B170008000000008717000893170008CE
:10004000A9180008A9180008A9180008A91800088C
:10005000A9180008A9180008A9180008A91800087C
:10006000A9180008A9180008A9180008A91800086C
:10007000A9180008A9180008A9180008A91800085C
:10008000A9180008A9180008A9180008A91800084C
:10009000A9180008A9180008A9180008A91800083C
:1000A000A9180008A9180008A9180008A91800082C
:1000B000A1170008B5170008A9180008A91800081A
:1000C000A9180008A9180008A9180008A91800080C
:1000D000A9180008A9180008A9180008A9180008FC
:1000E000A9180008A9180008A918000800000000B5
:1000F0000000000000000000000000000000000000
:0C01000000000000000000005FF808F1A3
:10010C0010B5054C237833B9044B13B10448AFF345
:10011C0000800123237010BD94000020000000001B
:10012C00A442000808B5034B1BB103490348AFF3C5
:10013C00008008BD0000000098000020A4420008C8
:10014C0080B500AF564B1B680E2B00F29A8001A2B3
:10015C0052F823F09D0100088F0200088F0200085E
:10016C008F0200088F0200088F0200088F0200081F
:10017C008F020008C3010008F10100081F020008EB
:10018C008F0200084D020008630200087902000883
:10019C0000F050FC434B1B68434A1360404B082251
:1001AC001A60404B1B68184600F064FA0346184668
:1001BC0001F0ACF872E000F08DFC3C4B1B68012B9D
:1001CC0061D1374B09221A60394B1B68364A1360D0
:1001DC00374B1B68184600F04DFA0346184601F0E1
:1001EC0095F850E000F08AFC304B1B68012B4CD189
:1001FC002B4B0A221A602F4B1B682B4A13602D4B7A
:10020C001B68184600F036FA0346184601F07EF8D3
:10021C003BE000F087FC254B1B68012B37D1204BB2
:10022C0008221A601F4B1B681F4A13601D4B1B686A
:10023C00184600F01FFA0346184601F067F826E04E
:10024C001A4B1B68012B24D100F090FB4FF4FA7071
:10025C0001F05CF81DE0154B1B68012B1BD100F065
:10026C0097FB4FF4FA7001F051F814E00F4B1B6838
:10027C00012B12D100F09EFB4FF4FA7001F046F8FE
:10028C000BE000BF0AE000BF08E000BF06E000BFC3
:10029C0004E000BF02E000BF00E000BF00BF80BD73
:1002AC00B40000200C0000201800002000010020E9
:1002BC00100000201400002080B500AF564B1B68C6
:1002CC000E2B00F29A8001A252F823F015030008BD
:1002DC0007040008070400080704000807040008C6
:1002EC000704000807040008070400083B03000883
:1002FC00690300089703000807040008C5030008F9
:10030C00DB030008F103000800F020FC434B1B68E2
:10031C00434A1360404B09221A60404B1B68184635
:10032C0000F0A8F90346184601F00AF872E000F054
:10033C001DFC3C4B1B68012B61D1374B09221A6009
:10034C00364B1B68364A1360344B1B68184600F05A
:10035C0091F90346184600F0F3FF50E000F016FC4C
:10036C00304B1B68012B4CD12B4B0A221A602E4BA5
:10037C001B682B4A13602C4B1B68184600F07AF94B
:10038C000346184600F0DCFF3BE000F00FFC254B69
:10039C001B68012B37D1204B08221A60234B1B689A
:1003AC001F4A1360214B1B68184600F063F9034683
:1003BC00184600F0C5FF26E01A4B1B68012B24D110
:1003CC0000F00AFB4FF4FA7000F0BAFF1DE0154B79
:1003DC001B68012B1BD100F00FFB4FF4FA7000F0DF
:1003EC00AFFF14E00F4B1B68012B12D100F014FB74
:1003FC004FF4FA7000F0A4FF0BE000BF0AE000BF5E
:10040C0008E000BF06E000BF04E000BF02E000BF50
:10041C0000E000BF00BF80BDB8000020100000202D
:10042C001C00002004010020140000200C000020FF
:10043C0080B500AF824B1B68042B00F2F68001A242
:10044C0052F823F06504000885040008CB0400086A
:10045C004F050008D3050008794B01221A60794B2F
:10046C0000221A60784B00221A60784B00221A6026
:10047C00774B00221A60E1E0764B1B68184600F0BF
:10048C0007F90346012B40F0D28000F00FFF00F07B
:10049C001DFF00F02BFF6A4B02221A60694B0C22E5
:1004AC001A60694B0C221A606B4B02221A606B4B60
:1004BC001B686B4A1360654B1E221A60B7E0654BD4
:1004CC001B68184600F0E4F80346012B18D100F025
:1004DC00EDFE00F0FBFE00F009FF594B03221A6001
:1004EC00584B0E221A60584B0E221A605A4B03229C
:1004FC001A605C4B1B685A4A1360544B1E221A60DC
:10050C00594B1B68184600F0C3F80346012B0BD15E
:10051C00534B1B680133524A1360514B1B68632BBE
:10052C0002DD4F4B00221A60504B1B68184600F03E
:10053C00AFF80346012B7CD1494B1B68474A13602B
:10054C0077E0444B1B68184600F0A2F80346012BD9
:10055C0018D100F0ABFE00F0B9FE00F0C7FE384B2E
:10056C0004221A60374B0D221A60374B0D221A6089
:10057C00394B04221A603E4B1B68394A1360334BCB
:10058C001E221A60384B1B68184600F081F803468F
:10059C00012B0BD1324B1B680133314A1360304BAA
:1005AC001B68632B02DD2E4B00221A602F4B1B683D
:1005BC00184600F06DF80346012B3CD1284B1B6804
:1005CC00284A136037E0234B1B68184600F060F88C
:1005DC000346012B08D100F069FE00F077FE00F015
:1005EC0085FE174B00221A601F4B1B68184600F043
:1005FC004FF80346012B0BD1194B1B680133184ADA
:10060C001360174B1B68632B02DD154B00221A601D
:10061C00164B1B68184600F03BF80346012B0CD117
:10062C000F4B1B68124A136007E000BF06E000BFC7
:10063C0004E000BF02E000BF00E000BF00BF80BDCF
:10064C00B0000020B4000020B8000020BC00002046
:10065C00C0000020C4000020180000200C00002066
:10066C001C000020140000200000002004000020CA
:10067C001000002080B483B000AF78607B684FF42A
:10068C007A7202FB03F318460C37BD4680BC7047E8
:10069C0080B483B000AF7860094A7B6813441B7840
:1006AC00012B06D1064A7B68134400221A700123E1
:1006BC0000E0002318460C37BD4680BC704700BFD5
:1006CC00DC00002080B483B000AF0346FB71FB79E3
:1006DC00022B01D9002307E0FB79064AD35C002BDF
:1006EC000CBF01230023DBB218460C37BD4680BC7F
:1006FC00704700BFC800002080B483B000AF034631
:10070C00FB71FB79022B01D9FF2307E0FB79064A29
:10071C00D35C012B0CBF01230023DBB218460C3732
:10072C00BD4680BC704700BFD800002080B582B0A9
:10073C0000AF0346FB71FB79514AD35C022B68D0A6
:10074C00022B00F39880002B02D0012B1AD092E0E0
:10075C00FB791846FFF7B6FF0346002B00F08880A4
:10076C00FB79474A0121D154FB79464A002122F8F2
:10077C001310FB79444A0021D154FB79434A0121DF
:10078C00D15475E0FB791846FFF79CFF0346002B0C
:10079C000DD1FB793A4A0021D154FB793B4A002117
:1007AC00D154FB79374A002122F8131062E0FB790F
:1007BC00344A32F81330632B09D8FB79314A32F8BA
:1007CC001320013291B22F4A22F8131011E0FB7959
:1007DC002D4A0121D154FB792C4A0121D154FB79AA
:1007EC002B4A002122F81310FB79264A002122F80B
:1007FC001310FB791846FFF77FFF0346002B39D007
:10080C00FB791F4A0221D154FB791F4A0021D15494
:10081C0030E0FB791846FFF755FF0346002B0DD14E
:10082C00FB79174A0021D154FB79184A0021D15485
:10083C00FB79174A002122F813101CE0FB79144AAB
:10084C0032F81330132B09D8FB79114A32F81320E4
:10085C00013291B20E4A22F813100CE0FB790B4ACC
:10086C000121D154FB790A4A002122F8131002E02D
:10087C0000BF00E000BF00BF0837BD4680BD00BF11
:10088C00F0000020E0000020D8000020DC00002058
:10089C00E800002090B583B000AF0023FB7151E05D
:1008AC00FA79FB792B49895C2B4AD154FA79FB797B
:1008BC002A49895C274AD154FB79022B1AD0022B86
:1008CC0022DC002B02D0012B0AD01DE0FC79022186
:1008DC00234801F0FDFA03461A46204B1A5514E042
:1008EC00FC7910211E4801F0F3FA03461A461B4B03
:1008FC001A550AE0FC7901211A4801F0E9FA03467D
:10090C001A46164B1A5500E000BFFB79134AD25C0D
:10091C00FB791049CB5C9A4211D1FB790D4AD25C20
:10092C00FB790D49CB5C9A4209D1FA79FB790A49DA
:10093C00895C0D4AD154FB791846FFF7F7FEFB7919
:10094C000133FB71FB79022BAAD900BF00BF0C3716
:10095C00BD4690BDD0000020D4000020CC0000206B
:10096C0000080140000C0140C800002080B500AF19
:10097C0000224FF48061044801F0C1FA08210348B9
:10098C0001F0D5FA00BF80BD00080140000C014009
:10099C0080B500AF4FF48061044801F0C8FA002222
:1009AC000821034801F0ABFA00BF80BD00080140EC
:1009BC00000C014080B500AF4FF48061044801F099
:1009CC00B6FA0821034801F0B2FA00BF80BD00BF9F
:1009DC0000080140000C014080B500AF002220212E
:1009EC00044801F08CFA1021024801F0A0FA00BF73
:1009FC0080BD00BF000C014080B500AF2021054830
:100A0C0001F095FA00221021024801F078FA00BF9B
:100A1C0080BD00BF000C014080B500AF2021044810
:100A2C0001F085FA1021024801F081FA00BF80BD67
:100A3C00000C014080B500AF00224FF480610548E6
:100A4C0001F05DFA00220821034801F058FA00BFBA
:100A5C0080BD00BF00080140000C014080B500AF14
:100A6C0001224FF48061054801F049FA00224FF44D
:100A7C008071034801F043FA00BF80BD000C0140B7
:100A8C000008014080B500AF00224FF4806105489A
:100A9C0001F035FA01224FF48071034801F02FFA6E
:100AAC0000BF80BD000C01400008014080B500AFC4
:100ABC0001224FF48061054801F021FA01224FF424
:100ACC008071034801F01BFA00BF80BD000C01408F
:100ADC000008014080B500AF00224FF4806105484A
:100AEC0001F00DFA01220821034801F008FA00BFB9
:100AFC0080BD00BF00080140000C014080B500AF74
:100B0C0001224FF48061054801F0F9F90022082117
:100B1C00034801F0F4F900BF80BD00BF000801409C
:100B2C00000C014080B500AF01224FF480610548F4
:100B3C0001F0E5F901220821034801F0E0F900BFBA
:100B4C0080BD00BF00080140000C014080B500AF23
:100B5C0000222021044801F0D2F900221021024881
:100B6C0001F0CDF900BF80BD000C014080B500AF95
:100B7C0000222021044801F0C2F901221021024870
:100B8C0001F0BDF900BF80BD000C014080B500AF85
:100B9C0001222021044801F0B2F900221021024860
:100BAC0001F0ADF900BF80BD000C014080B500AF75
:100BBC0001222021044801F0A2F90122102102484F
:100BCC0001F09DF900BF80BD000C014080B582B0E2
:100BDC0000AF00237B601EE0134B1B68012B17D169
:100BEC00124B1A68124B1B681344FF2292FBF3F34F
:100BFC007A6813447B607B68FF2B01DDFF237B60ED
:100C0C000C4B1B687A685A634FF47A7000F000FC46
:100C1C007B6801337B607B68FE2BDDDD00BF00BF92
:100C2C000837BD4680BD00BF140100201000002015
:100C3C00140000204001002080B58EB000AF00F001
:100C4C002FFE00F087F800F0B3F900F0C5F800F0C3
:100C5C000FF900F083F9324801F0ECFD0021314826
:100C6C0001F092FE304B00221A604FF47A7000F0C3
:100C7C004DFB4FF47A7000F063FB4FF47A7000F088
:100C8C0079FB4FF47A7000F08FFB4FF47A7000F020
:100C9C00A5FB00F03FFA0A220021244800F046FA96
:100CAC000A220021224800F041FA0A2200212148A0
:100CBC0000F03CFA0A2200211F4800F037FA0A2201
:100CCC0000211E4800F032FA0A2200211C4800F0D4
:100CDC002DFA1C4B1B68012B11D13B1D1A4A1B49C9
:100CEC00184602F09FFE03469AB2391D4FF47A73F0
:100CFC00174802F0FAFC4FF4FA6000F06FFB094B56
:100D0C001B680A225A634FF47A7000F02BFE054BD5
:100D1C001B6864225A634FF47A7000F023FED8E704
:100D2C008801002040010020B00000205114000870
:100D3C00A10800083D0400084D010008C502000888
:100D4C00A510000810010020BC420008C442000895
:100D5C00D001002080B590B000AF07F11803282215
:100D6C000021184602F056FE3B1D00221A605A6004
:100D7C009A60DA601A610223BB610123BB62102303
:100D8C00FB6202237B630023BB634FF46013FB63A2
:100D9C0007F11803184601F0E3F80346002B01D0C5
:100DAC0000F074F90F237B600223BB600023FB600F
:100DBC004FF480633B6100237B613B1D022118468D
:100DCC0001F04EFB0346002B01D000F05FF900BF91
:100DDC004037BD4680BD000080B586B000AF07F13E
:100DEC00080300221A605A609A60DA603B460022BF
:100DFC001A605A601D4B4FF080421A601B4B4FF625
:100E0C00FF125A60194B00229A60184B0922DA60C3
:100E1C00164B00221A61154B00229A61134801F0FF
:100E2C00B9FC0346002B01D000F030F94FF480538D
:100E3C00BB6007F1080319460C4802F00DF8034695
:100E4C00002B01D000F022F900233B6000237B60D3
:100E5C003B461946054802F08BFB0346002B01D09C
:100E6C0000F014F900BF1837BD4680BD8801002082
:100E7C0080B58EB000AF07F1280300221A605A60CB
:100E8C009A60DA6007F1200300221A605A603B1D59
:100E9C0000221A605A609A60DA601A615A619A618B
:100EAC002C4B2D4A1A602B4B3F225A60294B0022A7
:100EBC009A60284B40F2E732DA60264B00221A6126
:100ECC00244B00229A61234801F064FC0346002B5A
:100EDC0001D000F0DBF84FF48053BB6207F128031C
:100EEC0019461C4801F0B8FF0346002B01D000F056
:100EFC00CDF8184801F0F0FC0346002B01D000F0AF
:100F0C00C5F800233B6200237B6207F120031946DE
:100F1C00104802F02DFB0346002B01D000F0B6F870
:100F2C0060237B600023BB600023FB6000237B619C
:100F3C003B1D00221946074801F0D0FE0346002B4A
:100F4C0001D000F0A3F8034800F080FB00BF383755
:100F5C00BD4680BD400100200004004080B500AFBC
:100F6C00114B124A1A60104B4FF416525A600E4B2A
:100F7C0000229A600C4B0022DA600B4B00221A61A3
:100F8C00094B0C225A61084B00229A61064B002235
:100F9C00DA61054802F05CFB0346002B01D000F03F
:100FAC0075F800BF80BD00BFD00100200044004098
:100FBC0080B586B000AF07F1080300221A605A60B2
:100FCC009A60DA602E4B9B692D4A43F004039361BF
:100FDC002B4B9B6903F004037B607B68284B9B695C
:100FEC00274A43F008039361254B9B6903F00803E0
:100FFC003B603B6800224FF48761224800F07FFF82
:10100C0000224FF4A061204800F079FF1323BB604D
:10101C000023FB6001233B6107F1080319461A48C2
:10102C0000F0D2FD0123BB600023FB6001233B6178
:10103C0007F108031946134800F0C6FD4FF4876307
:10104C00BB600123FB6000233B6102237B6107F142
:10105C00080319460B4800F0B7FD4FF4A063BB60C2
:10106C000123FB6000233B6102237B6107F1080332
:10107C001946054800F0A8FD00BF1837BD4680BDD5
:10108C0000100240000C01400008014080B400AF89
:10109C0072B600BFFEE7000080B500AF194B1B68AD
:1010AC001846FFF7F5FA0346002B28D0164B0622FC
:1010BC001A60164B1B68012B1AD1154B1B680A2B97
:1010CC000ED00A2B0EDC082B02D0092B03D009E022
:1010DC00FFF7D8FC07E0FFF7C1FCFFF777FD02E054
:1010EC00FFF7BCFC00BF084B1B68013B064A1360B2
:1010FC00054B1B68002BDCDAFFF7D8FCD9E700BFE7
:10110C0080BD00BF08000020F4000020000100207A
:10111C00B400002080B400AF034B00221A7000BF53
:10112C00BD4680BC704700BFF800002080B485B07D
:10113C0000AFF860B9607A60294B1B78272B4AD82E
:10114C00274B1B781946274A0B469B000B449B00E8
:10115C001344FA681A60224B1B781846BB68224A63
:10116C00A2FB0323DA081F4903469B0003449B00A0
:10117C000B4404331A601A4B1B7818467B681A4AC6
:10118C00A2FB0323DA08174903469B0003449B0088
:10119C000B4408331A60124B1B781946114A0B4644
:1011AC009B000B449B0013440C3300221A700C4B15
:1011BC001A780B4B1B78194610460A4A0B469B00B3
:1011CC000B449B00134410331860054B1B78013300
:1011DC00DAB2034B1A7000BF1437BD4680BC70479F
:1011EC00F800002014020020CDCCCCCC80B483B00D
:1011FC0000AF00237B6048E02A497A6813469B00C5
:10120C0013449B000B4404331B68002B13D025495B
:10121C007A6813469B0013449B000B4404331B68F1
:10122C00591E20487A6813469B0013449B000344C4
:10123C000433196026E01B497A6813469B0013445B
:10124C009B000B440833196816487A6813469B00B8
:10125C0013449B0003440433196012497A68134603
:10126C009B0013449B000B440C331B780133D8B206
:10127C000C497A6813469B0013449B000B440C33B7
:10128C0002461A707B6801337B60074B1B781A4649
:10129C007B689342B0DB00BF00BF0C37BD4680BCFF
:1012AC00704700BF14020020F800002080B400AF8B
:1012BC00044B00221A60044B01221A6000BFBD4689
:1012CC0080BC70471C0100200001002080B400AFDE
:1012DC00044B00221A60044B01221A6000BFBD4669
:1012EC0080BC7047200100200401002080B400AFB6
:1012FC00044B00221A60044B01221A6000BFBD4649
:10130C0080BC7047240100200801002080B483B009
:10131C0000AF7860074B1B687A6892FBF3F3064AC0
:10132C001360064B00221A6000BF0C37BD4680BC10
:10133C00704700BF200000201C010020000100208D
:10134C0080B483B000AF7860074B1B687A6892FB5F
:10135C00F3F3064A1360064B00221A6000BF0C37E9
:10136C00BD4680BC704700BF20000020200100203B
:10137C000401002080B483B000AF7860074B1B6879
:10138C007A6892FBF3F3064A1360064B00221A604C
:10139C0000BF0C37BD4680BC704700BF200000204A
:1013AC00240100200801002080B483B000AF7860D5
:1013BC00074B1B687A6892FBF3F3064A1360064BE3
:1013CC0000221A6000BF0C37BD4680BC704700BFBE
:1013DC0020000020280100200C01002080B483B0E4
:1013EC0000AF7860074B1B687A6892FBF3F3064AF0
:1013FC001360064B00221A6000BF0C37BD4680BC40
:10140C00704700BF200000202C010020100100209C
:10141C0080B483B000AF7860074B1B687A6892FB8E
:10142C00F3F3064A1360064B00221A6000BF0C3718
:10143C00BD4680BC704700BF20000020300100205A
:10144C001401002080B400AF394B1B68002B0BDD5E
:10145C00374B1B68013B364A1360354B1B68002B1E
:10146C0002DC344B01221A60334B1B68002B0BDD62
:10147C00314B1B68013B304A13602F4B1B68002B10
:10148C0002DC2E4B01221A602D4B1B68002B0BDD4E
:10149C002B4B1B68013B2A4A1360294B1B68002B02
:1014AC0002DC284B01221A60274B1B68002B0BDD3A
:1014BC00254B1B68013B244A1360234B1B68002BF4
:1014CC0002DC224B01221A60214B1B68002B0BDD26
:1014DC001F4B1B68013B1E4A13601D4B1B68002BE6
:1014EC0002DC1C4B01221A601B4B1B68002B0BDD12
:1014FC00194B1B68013B184A1360174B1B68002BD8
:10150C0002DC164B01221A60154B1B68002B0BDDFD
:10151C00134B1B68013B124A1360114B1B68002BC9
:10152C0002DC104B01221A6000BFBD4680BC704724
:10153C0018010020FC0000201C01002000010020EC
:10154C0020010020040100202401002008010020BB
:10155C00280100200C0100202C010020100100208B
:10156C00300100201401002080B485B000AF154B71
:10157C009B69144A43F001039361124B9B6903F07E
:10158C000103BB60BB680F4BDB690E4A43F0805311
:10159C00D3610C4BDB6903F080537B607B680A4B97
:1015AC005B68FB60FB6823F0E063FB60FB6843F067
:1015BC000073FB60044AFB68536000BF1437BD46E0
:1015CC0080BC7047001002400000014080B584B020
:1015DC0000AF78607B681B68B3F1804F14D1194B56
:1015EC00DB69184A43F00103D361164BDB6903F046
:1015FC000103FB60FB68002200211C2000F0ADFA07
:10160C001C2000F0C6FA18E07B681B680E4A934257
:10161C0013D10C4BDB690B4A43F00203D361094B2A
:10162C00DB6903F00203BB60BB68002200211D20B4
:10163C0000F093FA1D2000F0ACFA00BF1037BD4645
:10164C0080BD00BF001002400004004080B588B08F
:10165C0000AF786007F1100300221A605A609A609C
:10166C00DA607B681B680F4A934217D10E4B9B695B
:10167C000D4A43F0040393610B4B9B6903F0040385
:10168C00FB60FB6840233B6102237B610223FB610F
:10169C0007F110031946054800F096FA00BF2037F1
:1016AC00BD4680BD0004004000100240000801400F
:1016BC0080B588B000AF786007F1100300221A6083
:1016CC005A609A60DA607B681B681B4A93422FD180
:1016DC001A4BDB69194A43F40033D361174BDB69AE
:1016EC0003F40033FB60FB68144B9B69134A43F013
:1016FC0004039361114B9B6903F00403BB60BB684B
:10170C0004233B6102237B610323FB6107F110037C
:10171C0019460B4800F058FA08233B6100237B6103
:10172C000023BB6107F110031946054800F04CFA81
:10173C0000BF2037BD4680BD004400400010024071
:10174C000008014080B400AFFEE780B400AFFEE7B4
:10175C0080B400AFFEE780B400AFFEE780B400AF0A
:10176C00FEE780B400AF00BFBD4680BC704780B4BC
:10177C0000AF00BFBD4680BC704780B400AF00BF57
:10178C00BD4680BC704780B500AF00F0CFF800BFFD
:10179C0080BD000080B500AF024801F097F900BF92
:1017AC0080BD00BF8801002080B500AF024801F069
:1017BC008DF900BF80BD00BF4001002080B586B010
:1017CC0000AF7860144A154BD31A7B617B693B617F
:1017DC00134B1B68002B02D1114B124A1A60104B91
:1017EC001A687B6813443A699A4207D202F0E8F807
:1017FC0003460C221A604FF0FF3309E0084B1B68BC
:10180C00FB60074B1A687B681344054A1360FB683E
:10181C0018461837BD4680BD00500020000400005B
:10182C00340100204805002080B400AF00BFBD4645
:10183C0080BC704780B582B000AF78607B681B6855
:10184C00B3F1804F01D1FFF7D1FC00BF0837BD4683
:10185C0080BD00000C480D490D4A002302E0D4580D
:10186C00C4500433C4188C42F9D30A4A0A4C0023DE
:10187C0001E013600432A242FBD3FFF7D5FF02F064
:10188C00A5F8FFF7D9F9704700000020940000205C
:10189C002C4300089400002048050020FEE70000BF
:1018AC0080B500AF084B1B68074A43F01003136068
:1018BC00032000F047F90F2000F008F8FFF754FE62
:1018CC000023184680BD00BF0020024080B582B0C6
:1018DC0000AF7860124B1A68124B1B7819464FF404
:1018EC007A73B3FBF1F3B2FBF3F3184600F05FF934
:1018FC000346002B01D001230EE07B680F2B0AD886
:10190C00002279684FF0FF3000F027F9064A7B6817
:10191C001360002300E0012318460837BD4680BD44
:10192C00240000202C0000202800002080B400AFF0
:10193C00054B1B781A46054B1B681344034A13606E
:10194C0000BFBD4680BC70472C0000203405002031
:10195C0080B400AF024B1B681846BD4680BC704774
:10196C003405002080B584B000AF7860FFF7F0FF3D
:10197C00B8607B68FB60FB68B3F1FF3F05D00A4B96
:10198C001B781A46FB681344FB6000BFFFF7E0FFAF
:10199C000246BB68D31AFA689A42F7D800BF00BF58
:1019AC001037BD4680BD00BF2C00002080B485B030
:1019BC0000AF78607B6803F00703FB600C4BDB68BF
:1019CC00BB60BA684FF6FF031340BB60FB681A029A
:1019DC00BB68134343F0BF6343F40033BB60044A5A
:1019EC00BB68D36000BF1437BD4680BC704700BFD6
:1019FC0000ED00E080B400AF044BDB681B0A03F081
:101A0C0007031846BD4680BC704700BF00ED00E0E0
:101A1C0080B483B000AF0346FB7197F90730002BFD
:101A2C000BDBFB7903F01F02064997F907305B09C2
:101A3C00012000FA02F241F8232000BF0C37BD460A
:101A4C0080BC704700E100E080B483B000AF034677
:101A5C003960FB7197F90730002B0ADB3B68DAB26F
:101A6C000C4997F907301201D2B20B4483F80023CA
:101A7C000AE03B68DAB20849FB7903F00F03043B38
:101A8C001201D2B20B441A7600BF0C37BD4680BC93
:101A9C00704700BF00E100E000ED00E080B489B0C9
:101AAC0000AFF860B9607A60FB6803F00703FB6174
:101ABC00FB69C3F10703042B28BF0423BB61FB693B
:101ACC000433062B02D9FB69033B00E000237B6146
:101ADC004FF0FF32BB6902FA03F3DA43BB681A40DA
:101AEC007B699A404FF0FF317B6901FA03F3D943CC
:101AFC007B680B40134318462437BD4680BC7047A7
:101B0C0080B582B000AF78607B68013BB3F1807F19
:101B1C0001D301230FE00A4A7B68013B53600F217C
:101B2C004FF0FF30FFF790FF054B00229A60044BFB
:101B3C0007221A60002318460837BD4680BD00BF37
:101B4C0010E000E080B582B000AF78607868FFF7F5
:101B5C002DFF00BF0837BD4680BD80B586B000AFF5
:101B6C000346B9607A60FB7300237B61FFF742FF89
:101B7C0078617A68B9687869FFF790FF024697F93F
:101B8C000F3011461846FFF75FFF00BF1837BD46F0
:101B9C0080BD80B582B000AF0346FB7197F907306A
:101BAC001846FFF735FF00BF0837BD4680BD80B52E
:101BBC0082B000AF78607868FFF7A2FF0346184642
:101BCC000837BD4680BD000080B48BB000AF786094
:101BDC00396000237B6200233B6269E101227B6A4E
:101BEC0002FA03F3FB613B681B68FA691340BB61A3
:101BFC00BA69FB699A4240F058813B685B689A4A23
:101C0C0093425ED0984A934275D8984A934258D0E2
:101C1C00964A93426FD8964A934252D0944A934232
:101C2C0069D8944A93424CD0924A934263D8924AD0
:101C3C00934246D0904A93425DD8122B2AD8122B4D
:101C4C0059D801A252F823F0CF1C0008A91C000897
:101C5C00BB1C0008FD1C0008031D0008031D000828
:101C6C00031D0008031D0008031D0008031D0008C8
:101C7C00031D0008031D0008031D0008031D0008B8
:101C8C00031D0008031D0008031D0008B11C0008FB
:101C9C00C51C0008794A934213D02CE03B68DB68E2
:101CAC003B6229E03B68DB6804333B6224E03B6821
:101CBC00DB6808333B621FE03B68DB680C333B623C
:101CCC001AE03B689B68002B02D104233B6213E0B3
:101CDC003B689B68012B05D108233B627B68FA6942
:101CEC001A6109E008233B627B68FA695A6103E0D8
:101CFC0000233B6200E000BFBB69FF2B01D87B686F
:101D0C0001E07B6804337B61BB69FF2B02D87B6AE3
:101D1C009B0002E07B6A083B9B003B617B691A6875
:101D2C000F213B6901FA03F3DB431A40396A3B6923
:101D3C0001FA03F31A437B691A603B685B6803F092
:101D4C008053002B00F0B1804D4B9B694C4A43F003
:101D5C00010393614A4B9B6903F00103BB60BB68B1
:101D6C00484A7B6A9B08023352F82330FB607B6A3B
:101D7C0003F003039B000F2202FA03F3DB43FA6820
:101D8C001340FB607B68404A934213D07B683F4A08
:101D9C0093420DD07B683E4A934207D07B683D4A04
:101DAC00934201D1032306E0042304E0022302E062
:101DBC00012300E000237A6A02F0030292009340B0
:101DCC00FA681343FB602F497B6A9B080233FA685D
:101DDC0041F823203B685B6803F48033002B06D06A
:101DEC002D4B1A682C49BB6913430B6006E02A4B38
:101DFC001A68BB69DB43284913400B603B685B687E
:101E0C0003F40033002B06D0234B5A682249BB69DC
:101E1C0013434B6006E0204B5A68BB69DB431E49F9
:101E2C0013404B603B685B6803F48013002B06D0B7
:101E3C00194B9A681849BB6913438B6006E0164B23
:101E4C009A68BB69DB43144913408B603B685B6841
:101E5C0003F40013002B21D00F4BDA680E49BB6939
:101E6C001343CB6021E000BF0000321000003110A2
:101E7C0000002210000021100000121000001110B0
:101E8C00001002400000014000080140000C01401D
:101E9C000010014000140140000401400B4BDA68B3
:101EAC00BB69DB4309491340CB607B6A01337B621E
:101EBC003B681A687B6A22FA03F3002B7FF48EAE20
:101ECC0000BF00BF2C37BD4680BC704700040140EA
:101EDC0080B485B000AF78600B467B807B689A68D5
:101EEC007B881340002B02D00123FB7301E00023FD
:101EFC00FB73FB7B18461437BD4680BC704780B41F
:101F0C0083B000AF78600B467B8013467B707B7888
:101F1C00002B03D07A887B681A6103E07B881A0453
:101F2C007B681A6100BF0C37BD4680BC704780B41B
:101F3C0085B000AF78600B467B807B68DB68FB600C
:101F4C007A88FB6813401A04FB68D9437B880B40E2
:101F5C001A437B681A6100BF1437BD4680BC7047BA
:101F6C0080B586B000AF78607B68002B01D101236F
:101F7C006CE27B681B6803F00103002B00F0878088
:101F8C00924B5B6803F00C03042B0CD08F4B5B68FB
:101F9C0003F00C03082B12D18C4B5B6803F48033D9
:101FAC00B3F5803F0BD1894B1B6803F40033002B36
:101FBC006CD07B685B68002B68D1012346E27B68A0
:101FCC005B68B3F5803F06D1804B1B687F4A43F4B6
:101FDC00803313602EE07B685B68002B0CD17B4B4D
:101FEC001B687A4A23F480331360784B1B68774A5A
:101FFC0023F4802313601DE07B685B68B3F5A02F8E
:10200C000CD1724B1B68714A43F4802313606F4BE5
:10201C001B686E4A43F4803313600BE06B4B1B68F8
:10202C006A4A23F480331360684B1B68674A23F4B5
:10203C00802313607B685B68002B13D0FFF788FC50
:10204C00386108E0FFF784FC02463B69D31A642B25
:10205C0001D90323FAE15D4B1B6803F40033002B19
:10206C00F0D014E0FFF774FC386108E0FFF770FC67
:10207C0002463B69D31A642B01D90323E6E1534B87
:10208C001B6803F40033002BF0D100E000BF7B6829
:10209C001B6803F00203002B63D04C4B5B6803F00E
:1020AC000C03002B0BD0494B5B6803F00C03082B83
:1020BC001CD1464B5B6803F48033002B16D1434B89
:1020CC001B6803F00203002B05D07B681B69012BF6
:1020DC0001D00123BAE13D4B1B6823F0F8027B6869
:1020EC005B69DB00394913430B603AE07B681B6981
:1020FC00002B20D0364B01221A60FFF729FC3861E7
:10210C0008E0FFF725FC02463B69D31A022B01D9E4
:10211C0003239BE12D4B1B6803F00203002BF0D033
:10212C002A4B1B6823F0F8027B685B69DB002749AC
:10213C0013430B6015E0264B00221A60FFF708FCD6
:10214C00386108E0FFF704FC02463B69D31A022B06
:10215C0001D903237AE11D4B1B6803F00203002B0A
:10216C00F0D17B681B6803F00803002B3AD07B6826
:10217C009B69002B19D0174B01221A60FFF7E8FB63
:10218C00386108E0FFF7E4FB02463B69D31A022BE7
:10219C0001D903235AE10D4B5B6A03F00203002BB8
:1021AC00F0D0012000F0D8FA1CE00A4B00221A6093
:1021BC00FFF7CEFB38610FE0FFF7CAFB02463B6925
:1021CC00D31A022B08D9032340E100BF00100240B0
:1021DC0000004242800442429E4B5B6A03F00203C1
:1021EC00002BE9D17B681B6803F00403002B00F083
:1021FC00A6800023FB75974BDB6903F08053002B03
:10220C000DD1944BDB69934A43F08053D361914BCE
:10221C00DB6903F08053BB60BB680123FB758E4BFD
:10222C001B6803F48073002B18D18B4B1B688A4AF4
:10223C0043F480731360FFF78BFB386108E0FFF702
:10224C0087FB02463B69D31A642B01D90323FDE0BB
:10225C00814B1B6803F48073002BF0D07B68DB6828
:10226C00012B06D17B4B1B6A7A4A43F001031362A4
:10227C002DE07B68DB68002B0CD1764B1B6A754A12
:10228C0023F001031362734B1B6A724A23F004039D
:10229C0013621CE07B68DB68052B0CD16D4B1B6A51
:1022AC006C4A43F0040313626A4B1B6A694A43F09D
:1022BC00010313620BE0674B1B6A664A23F00103B0
:1022CC001362644B1B6A634A23F0040313627B683A
:1022DC00DB68002B15D0FFF73BFB38610AE0FFF7FA
:1022EC0037FB02463B69D31A41F28832934201D93B
:1022FC000323ABE0574B1B6A03F00203002BEED019
:10230C0014E0FFF725FB38610AE0FFF721FB0246DA
:10231C003B69D31A41F28832934201D9032395E0E9
:10232C004C4B1B6A03F00203002BEED1FB7D012BFF
:10233C0005D1484BDB69474A23F08053D3617B6856
:10234C00DB69002B00F08180424B5B6803F00C03CF
:10235C00082B61D07B68DB69022B46D13F4B0022F6
:10236C001A60FFF7F5FA386108E0FFF7F1FA024658
:10237C003B69D31A022B01D9032367E0354B1B6849
:10238C0003F00073002BF0D17B681B6AB3F5803F20
:10239C0008D1304B5B6823F400327B689B682D4975
:1023AC0013434B602B4B5B6823F474127B68196AE4
:1023BC007B685B6A0B43274913434B60274B012215
:1023CC001A60FFF7C5FA386108E0FFF7C1FA024658
:1023DC003B69D31A022B01D9032337E01D4B1B6831
:1023EC0003F00073002BF0D02FE01C4B00221A607E
:1023FC00FFF7AEFA386108E0FFF7AAFA02463B692C
:10240C00D31A022B01D9032320E0124B1B6803F0D3
:10241C000073002BF0D118E07B68DB69012B01D134
:10242C00012313E00B4B5B68FB60FB6803F4803209
:10243C007B681B6A9A4206D1FB6803F470127B68B6
:10244C005B6A9A4201D0012300E00023184618373A
:10245C00BD4680BD0010024000700040600042424A
:10246C0080B584B000AF786039607B68002B01D1F7
:10247C000123D0E06A4B1B6803F007033A689A42C9
:10248C0010D9674B1B6823F0070265493B6813435F
:10249C000B60634B1B6803F007033A689A4201D048
:1024AC000123B8E07B681B6803F00203002B20D0EB
:1024BC007B681B6803F00403002B05D0594B5B6849
:1024CC00584A43F4E06353607B681B6803F00803CD
:1024DC00002B05D0534B5B68524A43F46053536056
:1024EC00504B5B6823F0F0027B689B684D491343AB
:1024FC004B607B681B6803F00103002B40D07B68AA
:10250C005B68012B07D1474B1B6803F40033002B8E
:10251C0015D101237FE07B685B68022B07D1414B0F
:10252C001B6803F00073002B09D1012373E03D4BB2
:10253C001B6803F00203002B01D101236BE0394B24
:10254C005B6823F003027B685B68364913434B607E
:10255C00FFF7FEF9F8600AE0FFF7FAF90246FB68AC
:10256C00D31A41F28832934201D9032353E02D4B05
:10257C005B6803F00C027B685B689B009A42EBD1B2
:10258C00274B1B6803F007033A689A4210D2244B7E
:10259C001B6823F0070222493B6813430B60204B56
:1025AC001B6803F007033A689A4201D0012332E01A
:1025BC007B681B6803F00403002B08D0194B5B6885
:1025CC0023F4E0627B68DB68164913434B607B683D
:1025DC001B6803F00803002B09D0124B5B6823F433
:1025EC0060527B681B69DB000E4913434B6000F0A3
:1025FC0021F802460B4B5B681B0903F00F030A49D9
:10260C00CB5C22FA03F3094A1360094B1B6818468A
:10261C00FFF75CF9002318461037BD4680BD00BF9C
:10262C000020024000100240D84200082400002084
:10263C002800002090B48AB000AF2A4B3C1D0FCB71
:10264C0084E80F0040F201233B800023FB61002350
:10265C00BB6100237B6200237B6100233B62224B26
:10266C005B68FB61FB6903F00C03042B02D0082BA5
:10267C0003D02DE01D4B3B622DE0FB699B0C03F05E
:10268C000F0307F12802134413F8243C7B61FB6908
:10269C0003F48033002B13D0134B5B685B0C03F0FB
:1026AC00010307F12802134413F8283CBB617B6932
:1026BC000E4A02FB03F2BB69B2FBF3F37B6204E04C
:1026CC007B690B4A02FB03F37B627B6A3B6202E091
:1026DC00064B3B6200BF3B6A18462837BD4690BC90
:1026EC00704700BFC84200080010024000127A0078
:1026FC0000093D0080B400AF024B1B681846BD4674
:10270C0080BC70472400002080B500AFFFF7F2FFBB
:10271C000246054B5B681B0A03F007030349CB5CBD
:10272C0022FA03F3184680BD00100240E84200086C
:10273C0080B500AFFFF7DEFF0246054B5B68DB0A96
:10274C0003F007030349CB5C22FA03F3184680BD60
:10275C0000100240E842000880B485B000AF7860F9
:10276C000A4B1B680A4AA2FB03235B0A7A6802FB2A
:10277C0003F3FB6000BFFB685A1EFA60002BF9D113
:10278C0000BF00BF1437BD4680BC7047240000203A
:10279C00D34D621080B582B000AF78607B68002B9F
:1027AC0001D1012341E07B6893F83D30DBB2002B73
:1027BC0006D17B68002283F83C207868FEF706FF80
:1027CC007B68022283F83D207B681A687B6804339F
:1027DC001946104600F028FC7B68012283F846203D
:1027EC007B68012283F83E207B68012283F83F201E
:1027FC007B68012283F840207B68012283F841200A
:10280C007B68012283F842207B68012283F84320F5
:10281C007B68012283F844207B68012283F84520E1
:10282C007B68012283F83D20002318460837BD46FB
:10283C0080BD000080B485B000AF78607B6893F8F1
:10284C003D30DBB2012B01D001233AE07B68022240
:10285C0083F83D207B681B68DA687B681B6842F054
:10286C000102DA607B681B68184A93420ED07B68C1
:10287C001B68B3F1804F09D07B681B68144A9342E4
:10288C0004D07B681B68134A934211D17B681B6888
:10289C009B6803F00703FB60FB68062B10D07B687A
:1028AC001B681A687B681B6842F001021A6007E01B
:1028BC007B681B681A687B681B6842F001021A600F
:1028CC00002318461437BD4680BC7047002C0140CD
:1028DC00000400400008004080B582B000AF786072
:1028EC007B68002B01D1012341E07B6893F83D30DC
:1028FC00DBB2002B06D17B68002283F83C20786881
:10290C0000F039F87B68022283F83D207B681A6856
:10291C007B6804331946104600F086FB7B68012265
:10292C0083F846207B68012283F83E207B680122D5
:10293C0083F83F207B68012283F840207B680122CA
:10294C0083F841207B68012283F842207B680122B6
:10295C0083F843207B68012283F844207B680122A2
:10296C0083F845207B68012283F83D20002318461C
:10297C000837BD4680BD80B483B000AF786000BF1F
:10298C000C37BD4680BC704780B584B000AF786012
:10299C0039603B68002B09D17B6893F83E30DBB281
:1029AC00012B14BF01230023DBB222E03B68042B74
:1029BC0009D17B6893F83F30DBB2012B14BF0123A4
:1029CC000023DBB215E03B68082B09D17B6893F838
:1029DC004030DBB2012B14BF01230023DBB208E033
:1029EC007B6893F84130DBB2012B14BF0123002329
:1029FC00DBB2002B01D001235EE03B68002B04D13D
:102A0C007B68022283F83E2013E03B68042B04D140
:102A1C007B68022283F83F200BE03B68082B04D133
:102A2C007B68022283F8402003E07B68022283F853
:102A3C0041207B681B6801223968184600F074FD40
:102A4C007B681B681E4A934207D17B681B685A6CD3
:102A5C007B681B6842F400425A647B681B68184A06
:102A6C0093420ED07B681B68B3F1804F09D07B6812
:102A7C001B68144A934204D07B681B68124A934229
:102A8C0011D17B681B689B6803F00703FB60FB6834
:102A9C00062B10D07B681B681A687B681B6842F099
:102AAC0001021A6007E07B681B681A687B681B6868
:102ABC0042F001021A60002318461037BD4680BD53
:102ACC00002C0140000400400008004080B582B09A
:102ADC0000AF78607B681B681B6903F00203022B54
:102AEC0022D17B681B68DB6803F00203022B1BD12D
:102AFC007B681B686FF002021A617B6801221A77EF
:102B0C007B681B689B6903F00303002B03D0786878
:102B1C0000F06FFA05E0786800F062FA786800F06F
:102B2C0071FA7B6800221A777B681B681B6903F0BB
:102B3C000403042B22D17B681B68DB6803F00403BD
:102B4C00042B1BD17B681B686FF004021A617B6835
:102B5C0002221A777B681B689B6903F44073002B75
:102B6C0003D0786800F045FA05E0786800F038FA90
:102B7C00786800F047FA7B6800221A777B681B683C
:102B8C001B6903F00803082B22D17B681B68DB68E8
:102B9C0003F00803082B1BD17B681B686FF008023D
:102BAC001A617B6804221A777B681B68DB6903F067
:102BBC000303002B03D0786800F01BFA05E078685B
:102BCC0000F00EFA786800F01DFA7B6800221A7784
:102BDC007B681B681B6903F01003102B22D17B68E8
:102BEC001B68DB6803F01003102B1BD17B681B6880
:102BFC006FF010021A617B6808221A777B681B68D9
:102C0C00DB6903F44073002B03D0786800F0F1F912
:102C1C0005E0786800F0E4F9786800F0F3F97B6877
:102C2C0000221A777B681B681B6903F00103012BD8
:102C3C000ED17B681B68DB6803F00103012B07D105
:102C4C007B681B686FF001021A617868FEF7F2FD71
:102C5C007B681B681B6903F08003802B0ED17B689B
:102C6C001B68DB6803F08003802B07D17B681B6833
:102C7C006FF080021A61786800F0E1FC7B681B68D9
:102C8C001B6903F04003402B0ED17B681B68DB688B
:102C9C0003F04003402B07D17B681B686FF04002A8
:102CAC001A61786800F0B7F97B681B681B6903F040
:102CBC002003202B0ED17B681B68DB6803F02003FC
:102CCC00202B07D17B681B686FF020021A61786893
:102CDC0000F0ACFC00BF0837BD4680BD80B584B0A9
:102CEC0000AFF860B9607A60FB6893F83C30012B58
:102CFC0001D10223ACE0FB68012283F83C207B6805
:102D0C000C2B00F29F8001A252F823F04D2D0008ED
:102D1C00512E0008512E0008512E00088D2D000850
:102D2C00512E0008512E0008512E0008CF2D0008FE
:102D3C00512E0008512E0008512E00080F2E0008AD
:102D4C00FB681B68B968184600F0D0F9FB681B6873
:102D5C009A69FB681B6842F008029A61FB681B6861
:102D6C009A69FB681B6822F004029A61FB681B6875
:102D7C009969BB681A69FB681B680A439A6162E02F
:102D8C00FB681B68B968184600F016FAFB681B68EC
:102D9C009A69FB681B6842F400629A61FB681B68C5
:102DAC009A69FB681B6822F480629A61FB681B6855
:102DBC009969BB681B691A02FB681B680A439A6114
:102DCC0041E0FB681B68B968184600F05FFAFB68C5
:102DDC001B68DA69FB681B6842F00802DA61FB6861
:102DEC001B68DA69FB681B6822F00402DA61FB6875
:102DFC001B68D969BB681A69FB681B680A43DA61EE
:102E0C0021E0FB681B68B968184600F0A9FAFB685A
:102E1C001B68DA69FB681B6842F40062DA61FB68C4
:102E2C001B68DA69FB681B6822F48062DA61FB6854
:102E3C001B68D969BB681B691A02FB681B680A43CB
:102E4C00DA6100E000BFFB68002283F83C2000231D
:102E5C0018461037BD4680BD80B584B000AF786091
:102E6C0039607B6893F83C30012B01D10223B3E02D
:102E7C007B68012283F83C207B68022283F83D208A
:102E8C007B681B689B68FB60FB6823F07703FB6027
:102E9C00FB6823F47F43FB607B681B68FA689A60CD
:102EAC003B681B68B3F5005F3ED0B3F5005F00F2E2
:102EBC008780B3F5805F00F08580B3F5805F7FD8A5
:102ECC00702B1AD0702B7BD8602B50D0602B77D8FE
:102EDC00502B3CD0502B73D8402B58D0402B6FD854
:102EEC00302B64D0302B6BD8202B60D0202B67D8A4
:102EFC00002B5CD0102B5AD062E07B6818683B68C2
:102F0C0099683B685A683B68DB6800F0EEFA7B68AE
:102F1C001B689B68FB60FB6843F07703FB607B6876
:102F2C001B68FA689A604EE07B6818683B68996881
:102F3C003B685A683B68DB6800F0D7FA7B681B6813
:102F4C009A687B681B6842F480429A603BE07B681D
:102F5C0018683B6859683B68DB681A4600F04EFA03
:102F6C007B681B685021184600F0A5FA2BE07B68A3
:102F7C0018683B6859683B68DB681A4600F06CFAC5
:102F8C007B681B686021184600F095FA1BE07B6893
:102F9C0018683B6859683B68DB681A4600F02EFAE3
:102FAC007B681B684021184600F085FA0BE07B68B3
:102FBC001A683B681B681946104600F07CFA02E060
:102FCC0000BF00E000BF7B68012283F83D207B68D6
:102FDC00002283F83C20002318461037BD4680BDE4
:102FEC0080B483B000AF786000BF0C37BD4680BCA6
:102FFC00704780B483B000AF786000BF0C37BD461B
:10300C0080BC704780B483B000AF786000BF0C37D1
:10301C00BD4680BC704780B483B000AF786000BF01
:10302C000C37BD4680BC704780B485B000AF78606B
:10303C0039607B681B68FB607B68294A93420BD024
:10304C007B68B3F1804F07D07B68264A934203D04C
:10305C007B68254A934208D1FB6823F07003FB6020
:10306C003B685B68FA681343FB607B681C4A9342BD
:10307C000BD07B68B3F1804F07D07B68194A934221
:10308C0003D07B68184A934208D1FB6823F4407341
:10309C00FB603B68DB68FA681343FB60FB6823F05A
:1030AC0080023B685B691343FB607B68FA681A60BB
:1030BC003B689A687B68DA623B681A687B689A623C
:1030CC007B68074A934203D13B681A697B681A6391
:1030DC007B6801225A6100BF1437BD4680BC704723
:1030EC00002C0140000400400008004080B487B070
:1030FC0000AF786039607B681B6A23F001027B6843
:10310C001A627B681B6A7B617B685B683B617B68CE
:10311C009B69FB60FB6823F07003FB60FB6823F08A
:10312C000303FB603B681B68FA681343FB607B6915
:10313C0023F002037B613B689B687A6913437B61D4
:10314C007B681C4A93420CD17B6923F008037B619A
:10315C003B68DB687A6913437B617B6923F004036A
:10316C007B617B68134A934211D13B6923F48073D2
:10317C003B613B6923F400733B613B685B693A69D3
:10318C0013433B613B689B693A6913433B617B6822
:10319C003A695A607B68FA689A613B685A687B683E
:1031AC005A637B687A691A6200BF1C37BD4680BCC3
:1031BC00704700BF002C014080B487B000AF78602E
:1031CC0039607B681B6A23F010027B681A627B688B
:1031DC001B6A7B617B685B683B617B689B69FB60FE
:1031EC00FB6823F4E043FB60FB6823F44073FB6053
:1031FC003B681B681B02FA681343FB607B6923F076
:10320C0020037B613B689B681B017A6913437B61DC
:10321C007B681D4A93420DD17B6923F080037B614F
:10322C003B68DB681B017A6913437B617B6923F084
:10323C0040037B617B68144A934213D13B6923F4AE
:10324C0080633B613B6923F400633B613B685B69D2
:10325C009B003A6913433B613B689B699B003A694D
:10326C0013433B617B683A695A607B68FA689A61E0
:10327C003B685A687B689A637B687A691A6200BFFC
:10328C001C37BD4680BC7047002C014080B487B011
:10329C0000AF786039607B681B6A23F480727B68AE
:1032AC001A627B681B6A7B617B685B683B617B682D
:1032BC00DB69FB60FB6823F07003FB60FB6823F0A9
:1032CC000303FB603B681B68FA681343FB607B6974
:1032DC0023F400737B613B689B681B027A69134380
:1032EC007B617B681D4A93420DD17B6923F400639B
:1032FC007B613B68DB681B027A6913437B617B69EA
:10330C0023F480637B617B68144A934213D13B693D
:10331C0023F480533B613B6923F400533B613B68CE
:10332C005B691B013A6913433B613B689B691B0159
:10333C003A6913433B617B683A695A607B68FA6867
:10334C00DA613B685A687B68DA637B687A691A626F
:10335C0000BF1C37BD4680BC704700BF002C01402D
:10336C0080B487B000AF786039607B681B6A23F447
:10337C0080527B681A627B681B6A3B617B685B6866
:10338C007B617B68DB69FB60FB6823F4E043FB60DB
:10339C00FB6823F44073FB603B681B681B02FA68F4
:1033AC001343FB603B6923F400533B613B689B6810
:1033BC001B033A6913433B617B680F4A934209D163
:1033CC007B6923F480437B613B685B699B017A6971
:1033DC0013437B617B687A695A607B68FA68DA61AF
:1033EC003B685A687B681A647B683A691A6200BF4A
:1033FC001C37BD4680BC7047002C014080B487B0A0
:10340C0000AFF860B9607A60FB681B6A7B61FB688F
:10341C001B6A23F00102FB681A62FB689B693B6123
:10342C003B6923F0F0033B617B681B013A69134352
:10343C003B617B6923F00A037B617A69BB681343A8
:10344C007B61FB683A699A61FB687A691A6200BF12
:10345C001C37BD4680BC704780B487B000AFF860A5
:10346C00B9607A60FB681B6A23F01002FB681A6271
:10347C00FB689B697B61FB681B6A3B617B6923F47E
:10348C0070437B617B681B037A6913437B613B69E7
:10349C0023F0A0033B61BB681B013A6913433B61FA
:1034AC00FB687A699A61FB683A691A6200BF1C373B
:1034BC00BD4680BC704780B485B000AF7860396081
:1034CC007B689B68FB60FB6823F07003FB603A68C9
:1034DC00FB68134343F00703FB607B68FA689A6050
:1034EC0000BF1437BD4680BC704780B487B000AFB6
:1034FC00F860B9607A603B60FB689B687B617B69B4
:10350C0023F47F437B613B681A027B681A43BB68D8
:10351C0013437A6913437B61FB687A699A6000BF35
:10352C001C37BD4680BC704780B487B000AFF860D4
:10353C00B9607A60BB6803F01F03012202FA03F33F
:10354C007B61FB681A6A7B69DB431A40FB681A6271
:10355C00FB681A6ABB6803F01F03796801FA03F36E
:10356C001A43FB681A6200BF1C37BD4680BC70470B
:10357C0080B485B000AF786039607B6893F83C30DC
:10358C00012B01D1022346E07B68012283F83C2009
:10359C007B68022283F83D207B681B685B68FB60BC
:1035AC007B681B689B68BB60FB6823F07003FB6047
:1035BC003B681B68FA681343FB607B681B68FA68FE
:1035CC005A607B681B68164A93420ED07B681B6856
:1035DC00B3F1804F09D07B681B68124A934204D028
:1035EC007B681B68104A93420CD1BB6823F08003A4
:1035FC00BB603B685B68BA681343BB607B681B6845
:10360C00BA689A607B68012283F83D207B680022AF
:10361C0083F83C20002318461437BD4680BC704705
:10362C00002C0140000400400008004080B483B02E
:10363C0000AF786000BF0C37BD4680BC704780B4CB
:10364C0083B000AF786000BF0C37BD4680BC7047BC
:10365C0080B582B000AF78607B68002B01D101236C
:10366C003FE07B6893F83D30DBB2002B06D17B68E2
:10367C00002283F83C207868FEF71AF87B68242235
:10368C0083F83D207B681B68DA687B681B6822F432
:10369C000052DA60786800F005F97B681B681A69DB
:1036AC007B681B6822F490421A617B681B685A691C
:1036BC007B681B6822F02A025A617B681B68DA68F7
:1036CC007B681B6842F40052DA607B6800221A6443
:1036DC007B68202283F83D207B68202283F83E20E3
:1036EC00002318460837BD4680BD80B58AB002AFAE
:1036FC00F860B9603B601346FB8000237B61FB687C
:10370C0093F83D30DBB2202B7CD1BB68002B02D070
:10371C00FB88002B01D1012375E0FB6893F83C304A
:10372C00012B01D102236EE0FB68012283F83C20BF
:10373C00FB6800221A64FB68212283F83D20FEF707
:10374C0007F97861FB68FA889A84FB68FA88DA844E
:10375C00FB689B68B3F5805F08D1FB681B69002B85
:10376C0004D10023FB61BB68BB6103E0BB68FB6158
:10377C000023BB61FB68002283F83C202AE03B68F5
:10378C0000937B6900228021F86800F040F8034622
:10379C00002B01D0032336E0FB69002B0BD1BB6956
:1037AC001B881A46FB681B68C2F308025A60BB6987
:1037BC000233BB6107E0FB691A78FB681B685A602F
:1037CC00FB690133FB61FB68DB8C9BB2013B9AB25A
:1037DC00FB68DA84FB68DB8C9BB2002BCFD13B6897
:1037EC0000937B6900224021F86800F010F8034632
:1037FC00002B01D0032306E0FB68202283F83D2038
:10380C00002300E0022318462037BD4680BD80B55A
:10381C0084B000AFF860B9603B601346FB712CE0DC
:10382C00BB69B3F1FF3F28D0BB69002B07D0FEF773
:10383C008FF802463B68D31ABA699A421DD2FB68CC
:10384C001B68DA68FB681B6822F4D072DA60FB68CC
:10385C001B685A69FB681B6822F001025A61FB68FD
:10386C00202283F83D20FB68202283F83E20FB6851
:10387C00002283F83C2003230FE0FB681B681A68C6
:10388C00BB681340BA689A420CBF01230023DBB219
:10389C001A46FB799A42C3D0002318461037BD460E
:1038AC0080BD000080B584B000AF78607B681B6879
:1038BC001B6923F440517B68DA687B681B680A43F8
:1038CC001A617B689A687B681B691A437B685B6921
:1038DC001343BB607B681B68DB6823F4B05323F095
:1038EC000C037A681268B9680B43D3607B681B6859
:1038FC005B6923F440717B689A697B681B680A4397
:10390C005A617B681B682C4A934203D1FEF710FF67
:10391C00F86002E0FEF7F8FEF860FA6813469B00C8
:10392C0013449A001A447B685B689B00B2FBF3F368
:10393C00224AA2FB03235B091901FA6813469B0078
:10394C0013449A001A447B685B689B00B2FBF3F249
:10395C001A4BA3FB02035B09642000FB03F3D31A8D
:10396C001B013233154AA2FB03235B0903F0F0035E
:10397C001944FA6813469B0013449A001A447B6856
:10398C005B689B00B2FBF3F20C4BA3FB02035B09DD
:10399C00642000FB03F3D31A1B013233074AA2FB4A
:1039AC0003235B0903F00F027B681B680A449A60CF
:1039BC0000BF1037BD4680BD003801401F85EB515C
:1039CC00014B1868704700BF3000002070B500260E
:1039DC000C4D0D4C641BA410A64209D100F05CFCEC
:1039EC0000260A4D0A4C641BA410A64205D170BDDA
:1039FC0055F8043B98470136EEE755F8043B9847D9
:103A0C000136F2E72443000824430008244300084D
:103A1C002843000803460244934200D1704703F840
:103A2C00011BF9E70EB46FF0004100B59CB01DAB63
:103A3C0002900690079104910848094953F8042B09
:103A4C000591006802A9019300F068F80022029B1E
:103A5C001A701CB05DF804EB03B070473000002006
:103A6C000802FFFF2DE9F0478E6882469E420C4605
:103A7C0090461F4638D88A8912F4906F32D0256848
:103A8C0009690133A5EB010965694B4405EB450553
:103A9C0005EBD5756D109D4238BF1D46530531D5CC
:103AAC00294600F053FB064650B90C234FF0FF306B
:103ABC00CAF80030A38943F04003A381BDE8F08726
:103ACC004A46216900F0CEFAA38923F4906343F0AF
:103ADC008003A38126614E4426603E466561A5EBBA
:103AEC000905A560BE4200D93E46324641462068D3
:103AFC0000F0C6FAA36822689B1B32440020A36026
:103B0C002260DBE72A4600F07BFB06460028E1D169
:103B1C005046216900F0CEFAC7E700002DE9F04FBE
:103B2C0098468B8907461B060D4614469DB00ED54C
:103B3C000B6963B9402100F009FB2860286120B9AA
:103B4C000C233B604FF0FF30D1E040236B6100232E
:103B5C00099320238DF8293030234FF00109CDF83B
:103B6C000C80DFF8A4818DF82A3023469A4613F88E
:103B7C00012B0AB1252AF9D1BAEB040B0BD05B4609
:103B8C00224629463846FFF76DFF013000F0AA8027
:103B9C00099A5A4409929AF80030002B00F0A2803E
:103BAC0000234FF0FF32CDE905230AF1010A0493FB
:103BBC0007938DF853301A935446052214F8011BC1
:103BCC00514800F041FA049AD8B9D00644BF2023DA
:103BDC008DF85330110744BF2B238DF853309AF8CE
:103BEC0000302A2B15D0544600204FF00A0C079AAF
:103BFC00214611F8013B303B092B4ED9B0B107924D
:103C0C0014E0A0EB080309FA03F31343A246049350
:103C1C00D2E7039B191D1B680391002BBBBF5B42B2
:103C2C0042F0020207930793B8BF049223782E2B1D
:103C3C000CD163782A2B35D1039B02341A1D1B68D7
:103C4C000392002BB8BF4FF0FF330593DFF8C8A0E9
:103C5C0003225046217800F0F7F940B14023A0EB45
:103C6C000A0003FA00F0049B01340343049314F894
:103C7C00011B062225488DF8281000F0E5F90028D4
:103C8C0038D0234B1BBB039B073323F007030833AC
:103C9C000393099B3344099367E70C4601200CFB03
:103CAC000232A5E700234FF00A0C194601340593A4
:103CBC00204610F8012B303A092A03D9002BC5D025
:103CCC000591C3E7044601230CFB0121F0E703AB8C
:103CDC0000932A4638460F4B04A9AFF30080421CD0
:103CEC000646D6D1AB895B063FF52CAF09981DB0C3
:103CFC00BDE8F08F03AB00932A463846054B04A968
:103D0C0000F07CF8EBE700BFF0420008FA42000834
:103D1C0000000000713A0008F64200082DE9F04757
:103D2C00164699468A680B6907469342B8BF1346F4
:103D3C00336091F843200C46DDF820800AB1013342
:103D4C0033602368990642BF3368023333602568B9
:103D5C0015F0060506D104F1190AE36832689B1ABE
:103D6C00AB4228DC94F84320131E226818BF0123B1
:103D7C0092062DD44946384604F14302C04701301F
:103D8C0020D02368E56803F00603042B18BF002538
:103D9C0032684FF00006A36808BFAD1A226908BF4D
:103DAC0025EAE5759342C4BF9B1AED181A34B54247
:103DBC001AD1002008E00123524649463846C04734
:103DCC00013003D14FF0FF30BDE8F0870135C4E777
:103DDC003020E11881F843005A1C94F84510224415
:103DEC00023382F84310C5E7012322464946384680
:103DFC00C0470130E6D00136D9E700002DE9FF4776
:103E0C000C46277E9146782F80469A460C9904F1F1
:103E1C00430207D8622F0AD8002F00F0D980582F00
:103E2C0000F0A48004F1420684F842703AE0A7F155
:103E3C006303152BF6D801A050F823F0A13E00081F
:103E4C00B53E0008313E0008313E0008313E000806
:103E5C00313E0008B53E0008313E0008313E0008F6
:103E6C00313E0008313E0008C33F0008E53E000823
:103E7C00A53F0008313E0008313E0008E53F000830
:103E8C00313E0008E53E0008313E0008313E000896
:103E9C00AD3F00080B6804F142061A1D1B680A604E
:103EAC0084F842300123A4E0256808682E0600F14E
:103EBC0004030AD505680B60002D03DA2D236D422F
:103ECC0084F843300A235E4819E015F0400F05686A
:103EDC000B6018BF2DB2EFE70B682568181D086042
:103EEC00280601D51D6802E06906FBD51D886F2FD9
:103EFC000CBF08230A235248002184F8431066683B
:103F0C00002EA8BF2168A660A4BF21F00401216087
:103F1C000DB9002E4DD01646B5FBF3F103FB11572E
:103F2C00C75D06F8017D2F46BB420D46F4D9082B20
:103F3C000BD12368DF0708D5236961689942DEBF7E
:103F4C00302306F8013C06F1FF36921B22614B46EA
:103F5C0021464046CDF800A003AAFFF7DFFE013052
:103F6C004CD14FF0FF3004B0BDE8F087344884F8F2
:103F7C0045700E68236856F8045B1F060E6014D556
:103F8C00D90744BF43F0200323601DB9236823F0F5
:103F9C00200323601023AFE7236843F02003236042
:103FAC007823284884F84530E3E75E0648BFADB275
:103FBC00E6E71646BBE70B6826681D1D60690D60B9
:103FCC0035061B6801D5186002E07106FBD5188018
:103FDC00002316462361BAE70B681A1D0A601E6897
:103FEC0000213046626800F02FF808B1801B606039
:103FFC0063682361002384F84330A8E732464946BE
:10400C0040462369D0470130ABD023689B0713D4BB
:10401C00E068039B9842B8BF1846A4E701233246D8
:10402C0049464046D04701309BD00135E36803999F
:10403C005B1AAB42F2DCEBE7002504F11906F5E75D
:10404C000143000812430008034610B5C9B20244EC
:10405C009342184601D1002003E0047801338C42CE
:10406C00F6D110BD0A44914200F1FF3300D17047E4
:10407C0010B511F8014B914203F8014FF9D110BD65
:10408C00884210B501EB020402D98442234607D8BA
:10409C00431EA14208D011F8012B03F8012FF8E7B9
:1040AC00014602448A4200D110BD13F8014D02F8BA
:1040BC00014DF7E738B50546002943D051F8043CCB
:1040CC000C1F002BB8BFE41800F0D0F81E4A136880
:1040DC00104633B9636014602846BDE8384000F0E0
:1040EC00CBB8A3420AD921686218934201BF1A685F
:1040FC005B685218226063600460EDE71A465B68E7
:10410C000BB1A342FAD911685018A0420BD1206808
:10411C000144501883421160DED118685B68014479
:10412C0011605360D8E702D90C232B60D4E72068C8
:10413C0021188B4201BF19685B6809182160636004
:10414C005460C9E738BD00BF38010020F8B5CD1C5C
:10415C0025F0030508350C2D38BF0C25002D06461F
:10416C0001DBA94203D90C2333600020F8BD00F019
:10417C007DF821490A6814469CB9204F3B6823B945
:10418C002146304600F062F838602946304600F08F
:10419C005DF8431C23D10C233046336000F06CF8DF
:1041AC00E3E723685B1B17D40B2B03D923601C4458
:1041BC00256004E06368A2420CBF0B60536030467C
:1041CC0000F05AF804F10B00231D20F00700C21A6E
:1041DC00CCD01B1AA350C9E722466468CCE7C41C98
:1041EC0024F00304A042E3D0211A304600F02EF84C
:1041FC000130DDD1CFE700BF380100203C010020A9
:10420C00F8B5074614460E4621B91146BDE8F840EC
:10421C00FFF79CBF22B9FFF74DFF25462846F8BD96
:10422C0000F030F8A0420FD221463846FFF78EFF3F
:10423C0005460028F2D031462246FFF713FF3146DF
:10424C003846FFF737FFE9E73546E7E738B500238F
:10425C00054D044608462B60FDF7B0FA431C02D10D
:10426C002B6803B1236038BD38050020014800F0ED
:10427C0011B800BF40050020014800F00CB800BF89
:10428C004005002051F8043C181F002BBCBF0B58F4
:10429C00C018704770477047F8B500BFF8BC08BC31
:1042AC009E467047F8B500BFF8BC08BC9E467047E8
:1042BC0048656C6C6F0D0A00257300000203040541
:1042CC00060708090A0B0C0D0E0F10100000000059
:1042DC0000000000010203040607080900000000AA
:1042EC0001020304232D302B2000686C4C00656602
:1042FC00674546470030313233343536373839412B
:10430C004243444546003031323334353637383940
:08431C00616263646566000044
:04432400310100085B
:044328000D0100087B
:10432C000100000002000000030000000500000076
:10433C000300000002000000050000000300000064
:10434C000A0000000024F40010000000010000002E
:10435C0034000020000000000000000000000000FD
:10436C000000000000000000000000000000000041
:10437C000000000000000000000000000000000031
:10438C000000000000000000000000000000000021
:10439C000000000000000000000000000000000011
:1043AC000000000000000000000000000000000001
:0443BC0000000000FD
:040000050800186176
:00000001FF
